:020000040800F2
:10000000D8090020ED010008612B0008F125000847
:100010005D2B000809090008FD33000800000000FE
:10002000000000000000000000000000A12B0008FC
:100030000D09000800000000652B0008A52B000832
:10004000070200080702000807020008070200086C
:10005000070200080702000807020008070200085C
:10006000070200080702000807020008070200084C
:10007000070200080702000807020008070200083C
:10008000070200080702000807020008070200082C
:10009000070200080702000807020008070200081C
:1000A000070200080702000807020008070200080C
:1000B00007020008070200080702000807020008FC
:1000C00007020008070200080702000807020008EC
:1000D00007020008070200080702000807020008DC
:1000E00011090008070200080702000807020008BB
:1000F00007020008070200080702000807020008BC
:1001000007020008070200080702000807020008AB
:10011000070200080702000807020008070200089B
:10012000070200080702000807020008070200088B
:10013000070200080702000807020008070200087B
:10014000070200080702000807020008070200086B
:10015000070200080702000807020008070200085B
:10016000070200080702000807020008070200084B
:10017000070200080702000807020008070200083B
:10018000070200080702000807020008070200082B
:10019000070200080000000007020008070200082C
:1001A000070200080702000807020008070200080B
:1001B00007020008070200080702000807020008FB
:1001C00007020008070200080702000807020008EB
:1001D0000702000807020008DFF80CD000F07CFBE3
:1001E0000048004769410008D809002006488047B8
:1001F00006480047FEE7FEE7FEE7FEE7FEE7FEE70C
:10020000FEE7FEE7FEE7FEE7A92B0008D90100089C
:100210002DE9F05F0546002092469B46884606463B
:10022000814640241BE0284641464746224600F0CE
:10023000A4FA53465A46C01A914110D311461846A3
:10024000224600F08BFA2D1A67EB01084F46224632
:100250000120002100F082FA17EB00094E41201E18
:10026000A4F10104DFDC484631462A464346BDE896
:10027000F09FD2B201E000F8012B491EFBD270477B
:100280000022F6E710B513460A4604461946FFF762
:10029000F0FF204610BD2DE9FE4F804681EA0300A5
:1002A000C00F0C46009021F0004123F00045B8EB50
:1002B0000200A94105D24046214690461C460B4605
:1002C000024623F00040104347D0270DC7F30A0031
:1002D000C3F30A510290401A019040286BDAC3F32D
:1002E000130040F4801B0098924620B10023D2EB0B
:1002F000030A63EB0B0B01985946C0F140025046CC
:1003000000F02CFA06460D4650465946019A00F078
:1003100044FA10EB08006141002487EA115284EA94
:10032000E7731A4340D0009A62B3019A012A4FEA58
:10033000075215DC001B61EB02014FF0004202EA9C
:100340000752CDE90042001C41F5801132462B4690
:1003500000F044FA03B0BDE8F08F40462146F9E7CB
:10036000001B61EB0201001C41F5801300185B418A
:100370002018A2F5001747EB030140EAD570B61923
:100380006D4111E06D084FEA360645EAC0754FEA47
:100390000752001B61EB0201001C41F58011490866
:1003A0004FEA30000019514132462B4603B0BDE8F8
:1003B000F04F00F004BA0098012240000023D0EB77
:1003C000020263EBE073009821464FEAE074B8EB59
:1003D000000061EB0401E9E783F000435BE781F093
:1003E000004158E72DE9FE4F81EA030404F0004480
:1003F00021F0004100944FF0000B23F0004350EA3D
:1004000001045ED052EA03045BD0C3F30A54C1F383
:100410000A552C44A4F2F3340194A0FB0254C1F316
:10042000130141F48011C3F3130343F4801301FB60
:10043000024400FB034E840A970A44EA815447EAC7
:100440008357A4FB076802958D0A05FB07854FEAD1
:10045000932C04FB0C542705029D4FEA065847EAEB
:100460001637B5EB08056EEB070C870E920E47EAC0
:10047000811742EA8312A7FB0201B6EB0B0164EB82
:1004800000042B0D43EA0C335E1844EB1C50DA4693
:100490005146E7FB0201C5F313044FEA0B3343EA6D
:1004A00014534FEA0432019C43EA0603A4F10C04FE
:1004B0000294009CCDE900B400F090F903B0BDE8CF
:1004C000F08F00200146F9E72DE9F04D81EA0304A1
:1004D00004F0004B21F0004514464FF0000A23F0D1
:1004E000004150EA050220D054EA01021DD0C5F3B4
:1004F0000A570246C5F31303C1F31300C1F30A56AA
:1005000040F4801543F48013A7EB0608101BD64671
:1005100008F2FD3873EB050002D308F1010801E091
:1005200092185B41B8F1000F03DA00200146BDE8E4
:10053000F08D00204FF48011064684460EE0171B14
:1005400073EB050705D3121B63EB050306434CEA67
:10055000010C49084FEA300092185B4150EA01074C
:10056000EDD152EA030012D082EA040083EA0501C9
:10057000084305D0101BAB4106D20122002306E040
:1005800000224FF0004302E06FF0010253101AEB1B
:1005900006004CEB085110EB0A0041EB0B01BDE8E3
:1005A000F04D00F00CB930B5041E71F1000404DB0D
:1005B0004FF00044404264EB0101141E73F100044B
:1005C00005DB1C464FF00043524263EB0403801AE4
:1005D000994101D3012030BD002030BD30B5041E4B
:1005E00071F1000404DB4FF00044404264EB010170
:1005F000141E73F1000405DB1C464FF00043524209
:1006000063EB0403101A8B4101D2012030BD00209E
:1006100030BD30B5041E71F1000404DB4FF000441E
:10062000404264EB0101141E73F1000405DB1C461B
:100630004FF00043524263EB0403101A8B4101D385
:10064000012030BD002030BD30B5041E71F1000422
:1006500004DB4FF00044404264EB0101141E73F1CF
:10066000000405DB1C464FF00043524263EB0403D9
:10067000801A994101D2012030BD002030BD30B533
:10068000041E71F1000404DB4FF00044404264EBAF
:100690000101141E73F1000405DB1C464FF00043FA
:1006A000524263EB040342404B401A4301D0002006
:1006B00030BD012030BD0EB5C10F80EAE0700844A6
:1006C000CA07002140F233438DE80E000A460B466C
:1006D00000F084F803B000BD0EB540F23341029142
:1006E0000021CDE900110A460B4600F077F803B06F
:1006F00000BD70B5C1F30A5201F000450024C1F3FA
:10070000130140F2FF3341F480119A4201DA0020D4
:1007100070BD40F233439A42A2F2334203DC5242AC
:1007200000F02BF800E090402C43F1D0404270BD27
:1007300030B50B46014600202022012409E021FAB1
:1007400002F59D4205D303FA02F5491B04FA02F5AE
:100750002844151EA2F10102F1DC30BD202A04DB81
:10076000203A00FA02F1002070479140C2F12003C4
:1007700020FA03F3194390407047202A04DB203A03
:1007800021FA02F00021704721FA02F3D040C2F1B1
:1007900020029140084319467047202A06DBCB17F8
:1007A000203A41FA02F043EAE07306E041FA02F32C
:1007B000D040C2F12002914008431946704710B55D
:1007C000141E73F1000408DA401C41F10001921874
:1007D0005B411A4301D120F0010010BD2DE9F04D1D
:1007E00092469B4611B1B1FA81F202E0B0FA80F272
:1007F00020329046FFF7B2FF04460F4640EA0A0057
:1008000041EA0B0153465A46084313D0114653EAB6
:10081000010019D0C8F140025046FFF7AEFF05466F
:100820000E46504659464246FFF798FF084305D00A
:10083000012004E020463946BDE8F08D0020054344
:1008400046EAE0762C4337430A986305E40AA0EBB6
:1008500008000022FD0A44EA47540A3002D500206D
:100860000146E9E7010510196941DDE9084500196C
:100870006941BDE8F04DA2E7C1F30A52C1F313018B
:1008800040F2FF3341F480119A4202DA002001461F
:10089000704740F233439A42A2F2334202DC5242A2
:1008A000FFF76BBFFFF75ABF30B5041E71F10004AC
:1008B00004DB4FF00044404264EB0101141E73F16D
:1008C000000405DB1C464FF00043524263EB040377
:1008D000994208BF904230BD1CB5094800900948B4
:1008E00001900546009C06E0E06840F0010394E8B2
:1008F000070098471034AC42F6D3FFF771FC0000B4
:10090000A8730008C8730008FEE7000070470000E5
:100910004FF4005000F01CB8EFF3108072B600BF27
:10092000FEE70000B0B5044600F0FEF8054640F2D0
:100930000400C2F200004068611C18BF044400BFFC
:1009400000F0F2F8401BA042FAD3B0BD704700009F
:1009500040F21441C4F201010A68024214BF086067
:100960007047FFF7F3BF00002DE9F04F83B00E682A
:10097000002E00F0CF8000F1200241F2004C0092E6
:1009800000F13847C4F6000C06224FEAB72560454F
:1009900008BF0522052D38BF4FEAB72200250027E2
:1009A0004FF0000801920AE00E6808F1010836FADB
:1009B00008F207F1020705F1040500F0AB800122FF
:1009C00002FA08FE16EA0E09EED0D1F804C003229E
:1009D0000CF0030BABF1010602FA07F4012E6FEAEB
:1009E000040A11D88468CE6804EA0A04BE4034437D
:1009F0008460446824EA0E06CCF3001404FA08F478
:100A00002643466006E000BFBBF1030F02D14FF062
:100A1000030B21E0C6688C6806EA0A06BC40264340
:100A2000BBF1020FC66017D16FF00302009B02EA10
:100A3000580605F01C020F2453F806C004FA02FE03
:100A40000C692CEA0E0C04FA02F242EA0C029A51EA
:100A5000D1F804C00CF0030B02680BFA07F302EAAA
:100A60000A021A431CF4403F02609DD041F2600329
:100A7000C4F202031A6840F2004E42F001021A600A
:100A80001A68C4F2010E02F001020292029A28F0E2
:100A900003024FF6084C7244CFF6FF7C52F80C303C
:100AA00005F00C060F24B440A343019C04FA06F69B
:100AB000334342F80C30DEF808204B6842EA09065E
:100AC00040F20C4CDC0258BF22EA0906CEF808605E
:100AD000C4F2010CDCF800209C0242EA090658BF6F
:100AE00022EA0906CCF80060DEF804209C0342EA02
:100AF000090658BF22EA0906CEF80460DEF8002095
:100B0000DB0342EA090658BF22EA0906CEF8006074
:100B10004AE700BF03B0BDE8F08F00001823002AA9
:100B200008BF2823C150704740F2D050C2F20000E5
:100B30000068704790F84120202A03D190F84020A7
:100B4000012A01D102207047242280F84120026846
:100B5000136823F001031360136823F480531360B8
:100B6000136819431160116841F0010111602021DF
:100B700080F84110002180F84010002070470000EC
:100B800090F84120202A03D190F84020012A01D179
:100B900002207047242280F841200268136823F065
:100BA00001031360136823F4706343EA01211160A9
:100BB000116841F001011160202180F841100021ED
:100BC00080F8401000207047002804BF01207047C3
:100BD00010B590F8411031B9002180F8401004465A
:100BE00000F076FB2046242180F8411090E8121096
:100BF000C3680A68012B22F001020A6024F07062C7
:100C00000A618A6822F400428A6003D14CF40042EF
:100C10008A6009E04CF40442022B8A6004D14A68DD
:100C200042F4006203E000BF4A6822F400624A60B6
:100C30004A6800F1100C42F0007242F400424A602F
:100C4000CA6822F40042CA609CE81C101A4342EAB7
:100C50000422CA60026A42EA0C020A600A6842F090
:100C600001020A6000212022416480F841200163D2
:100C700080F84210002010BD2DE9F04782B00446F4
:100C800090F84100202803D194F84000012803D1B6
:100C9000022002B0BDE8F08701200D4698461746B5
:100CA00084F84000FFF740FF216806468A69120475
:100CB0001BD4212084F84100102084F84200002039
:100CC00060646762A4F82A806063608D49F6000C56
:100CD000B0F5807FCFF6004C22D3FF2222854FF063
:100CE000807324E088690004E3D520461921324648
:100CF00001F080FC002840F08580FFF715FF801B85
:100D000021681A28EED388690004EBD5606C40F0A6
:100D100020006064202084F84100012083E000BFAF
:100D2000628D002A228500F087804FF0007317F84B
:100D3000010B88626762608D01386085501E2085D6
:100D400028466FF39F20D2B240EA02404A68184317
:100D500002EA0C02104340F400504860608D0A9F84
:100D6000002849D040F2000A6FF39F254FF0FF089A
:100D70000CF58069C0F2FF1A11E000BF618D206898
:100D8000218550F8042FC9B202EA090242EA014162
:100D90004FF00072294311430160608D60B320461B
:100DA0003946324601F084FD60BB606A216810F864
:100DB000012B8A626062608D01386085208D013868
:100DC0002085618D0029E8D00004E6D120468021ED
:100DD00000223B46009601F0BBFC98B9608DB0F54F
:100DE000807FCBD32068A4F8288050F8041F524697
:100DF00001EA0901CEE700BF20463946324601F03C
:100E000019FD18B1012002B0BDE8F087206820214B
:100E1000C16142684EF60003CFF600631A4042609B
:100E2000002084F84110002184F8421084F840101A
:100E300002B0BDE8F08700BF486808222B4600EAF0
:100E40000C0062F39F23184340F0007085E7000018
:100E50002DE9F04F83B0044690F84100202807D1D7
:100E60000C9F4FB10D9E3EB194F8400001280BD16C
:100E7000022003B0BDE8F08F4FF4007060640120E1
:100E800003B0BDE8F08F00BF01209A469346884624
:100E900084F84000FFF748FE216805468A6912047D
:100EA0004BD4222084F8410040204FF0000984F800
:100EB0004200C4F8449067626685C4F8349049F6ED
:100EC00000034A68CFF600436FF39F285FFA8AF069
:100ED00048EA00401A40DDF838C0104400F50050E0
:100EE000CDF808804860204661462A461E4667467F
:100EF00001F0DEFCC0B92068BAF1010F09D04FEA59
:100F00001B218162204639462A4601F0D1FC58B99E
:100F100020685FFA8BF181622046402100223B4627
:100F2000009501F015FC48B384F84090012003B00F
:100F3000BDE8F08F88690004B3D5204619212A4600
:100F400001F058FB00289AD1FFF7EEFD401B216805
:100F50001A28EFD388690004ECD5606C40F02000BB
:100F60006064202084F84100002084F8420084F866
:100F70004000012003B0BDE8F08F00BF608D40F25B
:100F80000009B0F5807FC0F2FF1909D3206809F588
:100F9000105350F8041F4FF0FF0C01EA06020BE05B
:100FA000B4F82AC020685FFA8CF350F8042F32405E
:100FB00042EA034209F5923302991A430A434FF079
:100FC000FF0B06F580680260A4F828C012E000BF9D
:100FD000618D2068218550F8042FC9B202EA080209
:100FE00042EA01414FF00072029B11431943016034
:100FF000608D98B32046042100223B46009501F005
:10100000A7FB00287FF43BAF2068616A406A087044
:10101000606A218D01306062481E2085618D013932
:101020006185618D0029E3D00004E1D12046802153
:1010300000223B46009501F08BFB00287FF41FAF98
:10104000608DB0F5807FC3D32068A4F828B050F835
:10105000041F4A4601EA0801C6E700BF2046394698
:101060002A4601F0E7FB00287FF409AF2068202121
:10107000C16142684EF60003CFF600631A40426039
:10108000002084F8411084F8420084F8400003B046
:10109000BDE8F08F2DE9F04F81B0044690F8410093
:1010A000202807D10A9F4FB10B9E3EB194F8400013
:1010B00001280BD1022001B0BDE8F08F4FF4007081
:1010C0006064012001B0BDE8F08F00BF01209A46A6
:1010D00091468B4684F84000FFF726FD21680546BF
:1010E0008A6912044DD421200C9A84F841004020D2
:1010F0004FF0000849F6004384F84200C4F84480E9
:1011000067626685C4F83480CFF600436FF39F2B87
:101110005FFA8AF017464A685E464BEA00409B46F3
:10112000A3F580631A40104440F0807040F40050F2
:101130004860204639462A4601F0BAFBC0B920680B
:10114000BAF1010F09D04FEA1921816220463946D0
:101150002A4601F0ADFB58B920685FFA89F1816237
:101160002046802100223B46009501F0F1FA48B369
:1011700084F84080012001B0BDE8F08F8869000448
:10118000B1D5204619212A4601F034FA002898D119
:10119000FFF7CAFC401B21681A28EFD388690004B6
:1011A000ECD5606C40F020006064202084F84100A1
:1011B000002084F8420084F84000012001B0BDE81E
:1011C000F08F00BF608D40F20009B0F5807FC0F263
:1011D000FF1909D320684FF0FF0C50F8041F4B464D
:1011E00001EA0B020DE000BFB4F82AC020685FFAE4
:1011F0008CF350F8042F02EA0B0242EA03424FF04C
:1012000000731A4332434FF0FF0831460260A4F8DE
:1012100028C011E0618D2068218550F8042FC9B2E3
:1012200002EA0B0242EA01414FF0007211433143DE
:1012300033460160608D78B3204639462A4601F076
:1012400037FB00287FF43DAF606A216810F8012B5E
:101250008A626062608D01386085208D013820854A
:10126000618D0029E6D00004E4D1204680210022CF
:101270003B46009501F06CFA00287FF422AF608DA8
:10128000B0F5807FC6D32068A4F8288050F8041FEA
:101290004A4601EA0B01C9E7204639462A4601F0D1
:1012A000C9FA00287FF40DAF20682021C16142688F
:1012B0004EF60003CFF600631A404260002084F827
:1012C000411084F8420084F8400001B0BDE8F08F7E
:1012D00010B59CB0044600201B90CDE91900CDE963
:1012E000170002A85421FEF7CBFF206847F6000143
:1012F000C4F20001884233D045F60001C4F2000177
:1013000088425FD18020029002A800F09DF9002859
:1013100018BFFFF701FB41F24C04C4F2020420683D
:1013200017A940F001002060206800F00100019042
:1013300001984FF4407017901220189001201990D6
:1013400003201A9004201B904FF09040FFF70CFBF5
:10135000E06840F48000E060E06800F480002FE086
:101360004FF48070029002A800F06EF9002818BFB8
:10137000FFF7D2FA41F24C04C4F20204206817A924
:1013800040F004002060206800F004000190019803
:101390004FF44070179012201890012019900320EC
:1013A0001A9008201B9040F60000C4F60000FFF7DA
:1013B000DBFAE06840F08040E060E06800F08040E8
:1013C000019001981CB010BD40F2040040F2D051D1
:1013D000C2F20000C2F2000140680A6810440860CE
:1013E0007047000080B5032000F08CF80F2000F05B
:1013F00009F800281CBF012080BD00F02BF8002058
:1014000080BD0000B0B540F20405C2F20005696875
:10141000F1B1044640F20C00C2F200004FF47A72BF
:101420000068B2FBF1F1B0FBF1F000F0D1FE014633
:101430000F2C4FF001000AD8002918BFB0BD4FF0A3
:10144000FF302146002200F031F800202C60B0BDB2
:101450000120B0BD82B041F25800C4F202008168A0
:1014600041F001018160816801F001010191019960
:10147000016841F080510160006800F080500090E8
:10148000009802B000F0D6B8002848BF704700F0BE
:101490001F01012202FA01F11C2202EAD0004EF2E1
:1014A0000012CEF2000281507047000010B54EF6D7
:1014B0000C5CCEF2000CDCF80030C3F3022E8EF090
:1014C0000704042C28BF0424BEF103034FF0FF3EA1
:1014D0000EFA04F438BF0023A14399400EFA03F337
:1014E0009A43114300F00F0200F160430901043AEE
:1014F00003F564436244002848BF02F10C031970ED
:1015000010BD00004EF60C51CEF200010A684FF6F5
:10151000FF031A4060F30A2242F0806040F0FD7041
:101520000860704747F21401C4F2000151F8142C0E
:10153000B0F5007F3CD0002874D1C86E02F4C062C0
:1015400020F48070B2F5806FC8662FD151F8140C6A
:10155000012262F34A2041F8140C40F20C00C2F25E
:1015600000000068322250434DF68362C4F21B3201
:10157000A0FB0202900C00BF0A68520511D5421C64
:101580000FD00A6852050CD558B10A68520508D523
:10159000012806D00A68520503D50228A0F10400EC
:1015A000EAD10868400544BF032070470020704717
:1015B000C86E02F4C06240F48070B2F5806FC866F5
:1015C000F4D151F8140C012262F34A2041F8140CB2
:1015D00040F20C00C2F200000068322250434DF687
:1015E0008362C4F21B32A0FB0202900C0A6852050F
:1015F00011D5421C0FD00A6852050CD558B10A68A3
:10160000520508D5012806D00A68520503D50228DC
:10161000A0F10400EAD10868400544BF03207047E8
:10162000C4E700BF022060F34A2241F8142C0020D6
:101630007047000047F20800C4F20000016841F45E
:1016400080410160704700002DE9F04182B00446FE
:10165000807841F288060007C4F2020602D4002016
:101660002FE000BF56F8300C5FEAC0080BD456F8E4
:10167000300C40F0805046F8300C56F8300C00F03A
:1016800080500190019847F20007C4F200073868C3
:1016900040F480703860FFF747FA05463868C005A7
:1016A00000F10C81FFF740FA401B0228F6D9032015
:1016B000B8F1000F05D456F8301C21F0805146F8DF
:1016C000301C2168CA0717D18A071DD44A0723D4C2
:1016D0000A0729D4CA062FD48A0635D44A063BD431
:1016E0000A0641D4CA0547D48A034DD48A0553D487
:1016F0004A0559D467E000BF3268636822F00302EC
:101700001A4332608A07E1D53268A36822F00C02DE
:101710001A4332604A07DBD53268E36822F03002B0
:101720001A4332600A07D5D53268236922F0C00215
:101730001A433260CA06CFD53268636922F4407218
:101740001A4332608A06C9D53268A36922F440621E
:101750001A4332604A06C3D53268E36922F4405224
:101760001A4332600A06BDD53268236A22F4404229
:101770001A433260CA05B7D53268636A22F4403230
:101780001A4332608A03B1D57269A36A22F0030258
:101790001A4372618A05ABD53268E36A22F44022AB
:1017A0001A4332604A050ED53268236B22F4401288
:1017B0001A43B3F5801F326005D156F87C2C42F4F1
:1017C000801246F87C2C0A050ED53268636B22F431
:1017D00040021A43B3F5800F326005D156F87C2CD5
:1017E00042F4801246F87C2CCA040ED53268A36BF2
:1017F00022F040721A43B3F1807F326005D156F86F
:101800007C2C42F4801246F87C2C8A040ED5326877
:10181000E36B22F040621A43B3F1006F326005D1EE
:1018200056F87C2C42F4801246F87C2C4A040ED5E3
:101830003268236C22F040621A43B3F1006F3260C9
:1018400005D156F87C2C42F4801246F87C2C0A0410
:101850000ED53268636C22F040521A43B3F1805FB8
:10186000326005D156F87C2C42F4803246F87C2C4C
:10187000CA030ED53268A36C22F040421A43B3F17A
:10188000804F326005D156F87C2C42F4803246F805
:101890007C2C49030ED57169E26C21F4401111438F
:1018A000B2F5001F716105D156F87C1C41F480111E
:1018B00046F87C1C02B0BDE8F08100BFB06810F4AF
:1018C000407010D0216D88420BD0B068B16820F410
:1018D000407041F48031B160B16821F48031B16071
:1018E000B060C0070CD1B068216D20F4407008438F
:1018F000B0600020B8F1000F3FF5E3AEDBE600BFBB
:10190000FFF712F9054641F2883700BFB06880073B
:10191000E9D4FFF709F9401BB842F7D9C7E6000040
:101920002DE9F047002863D042F2000AC4F2020A0F
:101930000446DAF800000D4600F00F0088420CD291
:10194000DAF8000020F00F002843CAF80000DAF8A7
:10195000000000F00F00A8424AD1216841F20808B7
:10196000C807C4F2020803D1880740F1D080B5E06F
:10197000606858F8082C022838D003283CD192011E
:1019800036D5D8F80420D8F8043042F20046C3F324
:10199000031302F00302D8F804700133C0F2F40616
:1019A000032A04BF43F20066C0F26E16B6FBF3F2E0
:1019B000D8F80430C7F306277A43C3F341630227FC
:1019C00007EB4303B2FBF3F24BF20043C0F2C44314
:1019D0009A4259D9D8F8002012F0F00F49D089075F
:1019E00052D5A16800294FD143E000BF910305D42F
:1019F0000120BDE8F08700BF5105F9D5D8F80010E7
:101A000001F00C0104293FD0D8F8001001F00C01BE
:101A1000082939D0D8F8001001F00C010C2933D175
:101A2000D8F80410D8F8042042F20047C2F3031299
:101A300001F00301D8F804300132C0F2F4070329A1
:101A400004BF43F20067C0F26E17B7FBF2F1D8F89B
:101A50000420C3F306235943C2F34162022303EB7C
:101A60004202B1FBF2F14BF20042C0F2C442914299
:101A70000AD9D8F80010082262F307114FF00109C3
:101A8000C8F8001002E000BF4FF00009D8F80010BD
:101A900021F003010843C8F80000FFF745F80646A7
:101AA00041F28837D8F80000616800F00C00B0EB14
:101AB000810F07D0FFF738F8801BB842F2D9032016
:101AC000BDE8F0872168880708D4B9F1000F1ED05F
:101AD000D8F8000020F0F00017E000BF480705D557
:101AE000D8F8000040F4E060C8F80000080706D508
:101AF000D8F80000072262F30D20C8F80000D8F8DB
:101B00000000A26820F0F0001043C8F80000DAF8E6
:101B1000000000F00F00A8421BD9DAF8000020F006
:101B20000F002843CAF80000FEF7FEFF064641F208
:101B3000883700BFDAF8000000F00F00A84207D095
:101B4000FEF7F2FF801BB842F4D90320BDE8F0870E
:101B50002168480707D5D8F80000E26820F4E06063
:101B60001043C8F80000080708D5D8F8000021691C
:101B700020F4605040EAC100C8F80000D8F8000026
:101B800042F20041C0F2F40100F00C0004280846C3
:101B90002DD0D8F8000000F00C00082843F20060B7
:101BA000C0F26E1023D0D8F8002002F00C020C2AEC
:101BB0001CD1D8F80420D8F8043002F00302C3F393
:101BC0000313D8F804700133032A08BF0146B1FBA0
:101BD000F3F0D8F80410C7F30627C1F341610222DD
:101BE000784302EB4101B0FBF1F000E00020D8F8AF
:101BF000001046F6D002C1F30311C0F60002515C9A
:101C000040F20C0201F01F0120FA01F140F2040041
:101C1000C2F200000068C2F200021160BDE8F047A5
:101C2000FFF7F0BB40F20C0041F20801C2F20000E5
:101C3000C4F202010068096846F6E002C1F302211D
:101C4000C0F60002515C01F01F01C840704700005F
:101C500040F20C0041F20801C2F20000C4F202019D
:101C60000068096846F6E002C1F3C221C0F600022E
:101C7000515C01F01F01C8407047000041F20C01A7
:101C8000C4F2020151F8040C42F20042C0F2F40224
:101C900000F00C000428104608BF704751F8040CEF
:101CA00000F00C00082843F20060C0F26E1025D04E
:101CB00051F8043C03F00C030C2B1CBF00207047B0
:101CC00080B5D1F800C00B680CF0030CC3F3031E01
:101CD0000B680EF1010EBCF1030F08BF0246096844
:101CE000B2FBFEF0C3F30623C1F341610222584365
:101CF00002EB4101B0FBF1F0BDE88040704700000D
:101D0000002804BF012070472DE9F04182B004464D
:101D1000007841F20006C007C4F202061ED1207806
:101D200080073DD42078000764D42078400700F174
:101D300087802078800600F1D980E569002D00F0C9
:101D40004282B06800F00C000C2840F03181012D77
:101D500040F08E81012002B0BDE8F081B06800F053
:101D60000C01F068082961D0032281F00C0122EAFD
:101D700000000844B0FA80F0400957D1616830682B
:101D8000B1F5803F07D0B1F5A02F40F0E38040F4DB
:101D900080203060306840F480303060E4E000BF84
:101DA000B068F16800F00C00042871D001F0030164
:101DB00080F00C0081F002010844B0FA80F0400984
:101DC00066D1E1683068002900F0E08040F480705E
:101DD0003060FEF7A9FE05463068400500F10A8133
:101DE000FEF7A2FE401B0228F6D9032002B0BDE890
:101DF000F08100BF6169D6F89400002900F094805A
:101E000040F00100C6F89400FEF78EFE054600BFC4
:101E1000D6F8940080073FF588AFFEF785FE401B9B
:101E20000228F5D9032002B0BDE8F08130688003B4
:101E30007FF575AF606800287FF471AF3EE000BFAA
:101E4000B06D5FEAC00808D4B06D40F08050B06556
:101E5000B06D00F080500190019847F20007C4F285
:101E600000073868C0052DD4386840F480703860A9
:101E7000FEF75AFE054600BF3868C00522D4FEF7BB
:101E800053FE401B0228F7D9032002B0BDE8F081C1
:101E90003068400501D5E06880B17068216920F0A4
:101EA000FE4040EA0160706040F20400C2F20000AF
:101EB0000068FFF7A7FA00283FF434AF012002B012
:101EC000BDE8F081A168D6F89000012908D0052965
:101ED00040F0AE8040F00400C6F89000D6F89000C4
:101EE00040F00100C6F89000AEE000BFA169D6F84E
:101EF0009800002900F0868040F00100C6F89800A4
:101F0000FEF712FE054600BFD6F8980080073FF5A1
:101F100014AFFEF709FE401B02284FF00300F3D96F
:101F200002B0BDE8F08100BF20F00100C6F89400C7
:101F3000FEF7FAFD054600BFD6F8940080077FF54E
:101F4000F4AEFEF7F1FD401B0228F5D9032002B0E4
:101F5000BDE8F08120F4803030603068002920F442
:101F60008020306000F0BE80FEF7DEFD054600BF39
:101F7000306880033FF5D3AEFEF7D6FD401B6428E2
:101F8000F6D9032002B0BDE8F08100BF20F48070D4
:101F90003060FEF7C9FD0546306840057FF5C2AEEA
:101FA000FEF7C2FD401B02284FF00300F4D9B7E74B
:101FB000306820F080703060FEF7B6FD022D0546D7
:101FC0000CD100BF3068800140F1B880FEF7ACFD55
:101FD000401B02284FF00300F4D9A1E730688001CC
:101FE00040F1EA80FEF7A0FD401B02284FF00300FD
:101FF000F4D995E77068216920F0FE4040EA01605D
:1020000070608FE620F00100C6F89800FEF78CFDA6
:10201000054600BFD6F8980080077FF58EAEFEF724
:1020200083FD401B02284FF00300F3D978E700BF7F
:1020300020F00100C6F89000D6F89000002920F0AA
:102040000400C6F890005DD0FEF76EFD054641F233
:10205000883700BFD6F89000800765D4FEF764FD8E
:10206000401BB842F6D9032002B0BDE8F08100BFA2
:10207000F068216A00F003028A427FF41FAF626AAF
:102080006FF00F0300F0F00103EB021291427FF4B6
:1020900015AFA16A00F4FE42B2EB012F7FF40EAF40
:1020A000E16A00F07842B2EBC16F7FF407AF226BB8
:1020B0000023CFF6E07303EA025200F4C001A2F558
:1020C000001291427FF4FAAE616B4FF07E4202EA59
:1020D000016100F0C06001F17E4188427FF4EEAE04
:1020E00071E000BFFEF720FD054600BF30688003A9
:1020F0007FF515AEFEF718FD401B64284FF0030076
:10210000F4D90DE7FEF710FD054641F2883700BF10
:10211000D6F89000800707D5FEF706FD401BB842B1
:102120004FF00300F4D9FBE6B8F1000F3FF501AE24
:10213000B06D20F08050B065FBE500BFF06848F25C
:102140000C01C0F29F1104F1200700EA010C8ECFB0
:102150006FF00F00D4E90C5400EB02100022CFF610
:10216000E07241EA0C0102EA05520843A2F50012AE
:102170004FF07E4540EA032005EA0465104305F16F
:102180007E4540EAC7602843F060306840F08070C8
:102190003060F06840F08070F060FEF7C5FC0446E7
:1021A000306880010FD4FEF7BFFC001B02284FF0FF
:1021B0000300F5D9B4E600BFF0684FF6FC71CFF626
:1021C000EE610840F060002002B0BDE8F081000040
:1021D000411E0020B0EB116F1CBF012070474EF272
:1021E0001002CEF2000251604EF62351CEF20001F1
:1021F000F0230B70072190601160704790F88410F5
:10220000012904BF022070472421C0F8881001680A
:102210000A680B6822F0005223F001030B600023D0
:1022200043660A602021C0F8881080F884300020BE
:102230007047000090F88420012A04BF02207047F4
:10224000B0B52422C0F888200268D0F864E0D2F843
:1022500000C01368BEF1000F23F001031360936800
:1022600023F0606341EA0301916019D0936891689B
:1022700046F6101E490FC0F6000E46F618151EF859
:102280000140C0F60005695CC3F34263E400B4FB9F
:10229000F1F11EF80340EB5CE500B5FBF3F301E060
:1022A00001210123A0F86A102021A0F86830C2F8AB
:1022B00000C0C0F88810002180F884100020B0BD54
:1022C00090F88420012A04BF02207047B0B5242270
:1022D000C0F888200268D0F864E0D2F800C0136823
:1022E000BEF1000F23F001031360936823F06043F5
:1022F00041EA0301916019D09368916846F6101E77
:10230000490FC0F6000E46F618151EF80140C0F63B
:102310000005695CC3F34263E400B4FBF1F11EF80D
:102320000340EB5CE500B5FBF3F301E00121012381
:10233000A0F86A102021A0F86830C2F800C0C0F8E8
:102340008810002180F884100020B0BD10B5D0B1F5
:102350000446D0F8880028B9002084F8840020467C
:1023600000F026F82420C4F888002068A16A0268DA
:1023700022F00102026011B1204600F01FFC20464D
:1023800000F046FD10B1012010BD00BF2168486873
:1023900020F490404860886820F02A00886008682F
:1023A00040F0010220460A60BDE8104000F07ABC0F
:1023B00010B59CB0044600201B90CDE91900CDE972
:1023C000170002A804305021FDF75AFF206848F298
:1023D0000001C4F20001884202D01CB010BD00BF51
:1023E0002020029002A8FFF72FF9002818BFFEF75F
:1023F00093FA41F24C00C4F20200016941F001017C
:102400000161016901F0010101910199016841F047
:10241000010101600068022100F0010001900198B3
:10242000189101210C20199100211790CDE91A1063
:1024300017A94FF09040FEF797FA1CB010BD0000AE
:102440002DE9F04381B00446D0F88800202809D156
:1024500000294FF0010018BF002A07D101B0BDE8E4
:10246000F08300BF022001B0BDE8F0830020C4F873
:10247000900021201D460E46C4F888001746FEF73E
:1024800053FBA4F85470A4F85670A1688146B1F5C6
:10249000805F02D12069002866D037460020B4F85A
:1024A00056202168002A67D06A1C28D0002D53D0FE
:1024B000804600BFC86900060AD4FEF735FBA0EBD2
:1024C0000900A84200F2848021680868F2E700BF92
:1024D00017B117F8010B04E038F8020B00276FF36F
:1024E0005F208862B4F856000138A4F85600B4F8AA
:1024F00056000028DED13FE0CA69120609D4CA6935
:10250000120606D4CA6912065CBFCA695FEA026293
:10251000F2D51FB117F8012B05E000BF30F8022BF0
:1025200000276FF35F228A62B4F85620013AA4F8BC
:102530005620B4F85620002AE1D11DE030F8022BD5
:1025400000276FF35F228A62B4F85620013AA4F89C
:102550005620B4F856207AB1CA69120636D5002F33
:10256000ECD017F8012BEEE700273046B4F85620E0
:102570002168002A7FF498AFC86940061ED42DB3A5
:10258000681C14D1C86940062AD4C869400627D4FB
:10259000C869400624D4C86940064FF00000F1D550
:1025A0000DE000BF20680168C069400618D4FEF73E
:1025B000BBFAA0EB0900A842F4D909E000202021D1
:1025C000C4F8881001B0BDE8F08300BFFEF7ACFA94
:1025D00003202021C4F8881001B0BDE8F08300BFBB
:1025E00000202021C4F8881001B0BDE8F08300006D
:1025F000FEE7000070B50446006815468369DA06F8
:1026000002D40021002266E00E461021C1618169DA
:1026100089065CD4711C50D02EBBFEF785FA206869
:10262000426894F8421083691B040BD512F480426F
:1026300008D1202906D0416841F480414160FEF76D
:1026400073FA054620688169890605D4FEF76CFA9D
:10265000401B1A28F6D328E081698906DDD536E0CB
:102660008169890633D4FEF75FFA411B2068B142C5
:10267000F6D9426894F8421083691B040CD512F411
:10268000804209D1202907D0416841F4804141604E
:10269000FEF74AFA054600BF206881698906DFD443
:1026A000FEF742FA401B1A28F6D3206801228169FE
:1026B000242110E08169890609D48169890606D43C
:1026C000816989065CBF81695FEA8161F2D5202159
:1026D000C161012204218369DE0505D54FF48072B2
:1026E00041F00101C26101225E0505D49B050AD4B7
:1026F00072B9002070BD00BF41F008014FF4806244
:102700009B05C26104D541F002014FF40072C26121
:102710008269920744BF002282628269D20703D194
:10272000826942F00102826142684EF60003CFF6F0
:1027300000631A404260606C08436064202084F8A3
:102740004100002084F8420084F84000012070BD60
:102750002DE9F0410446006880690840401AB0FA4B
:1027600080F04009904221D1DDF8188015460E46D0
:102770001F46581C27D0CFBB204600214246FFF7FA
:1027800039FF002853D1FEF7CFF920688169314025
:10279000891BB1FA81F14909A9423CD080693040D6
:1027A000801BB0FA80F04009A842E5D00020BDE8C7
:1027B000F08100BF206880693040801BB0FA80F053
:1027C0004009A842F2D120464FF0FF314246FFF7C0
:1027D00011FF0028EED00120BDE8F0818069304073
:1027E000801BB0FA80F04009A842DFD1204639466C
:1027F0004246FFF7FFFED0B9FEF796F9A0EB0801BD
:102800002068B942EAD981693140891BB1FA81F166
:102810004909A942E2D1606C40F0200060642020A8
:1028200084F84100002084F8420084F84000012030
:10283000BDE8F08170B5044600688069800635D433
:1028400015460E4619B928E0806980062ED4204628
:1028500031462A46FFF7CEFE30BBFEF765F9411B35
:102860002068B142F0D981698906EDD4606C40F0EE
:1028700020006064202084F84100002084F8420099
:1028800084F84000012070BDFEF74EF92068816990
:102890008906EBD58069800608D4204600212A46A7
:1028A000FFF7A8FE0028EFD0012070BD002070BD0A
:1028B00070B5044600688069800714D415460E463A
:1028C000481C17D01EBB00BF204600212A46FFF738
:1028D00091FEB8BBFEF728F920688169890725D5E4
:1028E00080698007F0D5002070BD00BF2068806936
:1028F0008007F8D420464FF0FF312A46FFF77AFED2
:102900000028F3D0012070BD80698007EBD42046F9
:1029100031462A46FFF76EFEA0B9FEF705F9411BC6
:102920002068B142F0D981698907EDD4606C40F02C
:1029300020006064202084F84100002084F84200D8
:1029400084F84000012070BD70B586B0002541F2CA
:102950004C000595CDE90355CDE90155C4F20200BF
:102960000168002241F0040101600168202601F0A5
:10297000040100910099016841F0200101600168A3
:1029800001F0200100910099016841F0010101600E
:10299000016801F0010100910099016841F0020114
:1029A00001600068202100F00200009000984FF0C4
:1029B0009040FEF7B3F84FF4005001904FF48810A8
:1029C000CDE9020540F6000001ACC4F60000214646
:1029D000FDF7CAFF0120CDE902054FF090402146E6
:1029E00001960495FDF7C0FF282000210022FEF784
:1029F0005DFD2820FEF748FD06B070BD80B540F2B1
:102A0000100045F60001C2F20000C4F2000148F2D5
:102A1000C2520023C4F2B2024FF0010C80E80E1043
:102A2000C0E90433C0E906330362FEF7CDF800289D
:102A300018BFFDF771FF40F21000C2F20000002144
:102A4000FEF778F8002818BFFDF766FF40F2100087
:102A5000C2F200000021FEF793F8002808BF80BDF5
:102A6000BDE88040FDF758BF80B540F2640047F6EE
:102A70000001C2F20000C4F2000148F2C252002379
:102A8000C4F2B2024FF0010C80E80E10C0E904332A
:102A9000C0E906330362FEF797F8002818BFFDF778
:102AA0003BFF40F26400C2F200000021FEF742F852
:102AB000002818BFFDF730FF40F26400C2F20000AA
:102AC0000021FEF75DF8002808BF80BDBDE880400A
:102AD000FDF722BF80B540F2B80048F20001C2F213
:102AE0000000C4F200014FF4E132002380E80E0040
:102AF00000F10C014FF4C06C4FF00C0E81E808504F
:102B00008361C0E908338362FFF720FC002818BF07
:102B1000FDF702FF40F2B800C2F200000021FFF70B
:102B2000CFFB002818BFFDF7F7FE40F2B800C2F255
:102B300000000021FFF77EFB002818BFFDF7ECFE28
:102B400040F2B800C2F20000FFF758FB002808BFAF
:102B500080BDBDE88040FDF7DFBE0000FEE700005D
:102B6000FEE70000704700002DE9F0419AB00D46E5
:102B7000DDF8808019461446074601F00BFF01AED0
:102B800006A13046424603F00FFA3846294622464F
:102B9000334601F0B1FE1AB0BDE8F081253464007F
:102BA00070470000FEF710BC4EF68850CEF20000D1
:102BB000016841F47001016070470000816A0A07F2
:102BC0000CD4CA0715D18A071ED44A0727D4CA06CF
:102BD00030D48A0639D44A0642D457E00268D0F885
:102BE00038C0536823F4004343EA0C035360CA0718
:102BF000E9D00268D0F82CC0536823F4003343EACC
:102C00000C0353608A07E0D50268D0F830C05368DF
:102C100023F4803343EA0C0353604A07D7D5026894
:102C2000D0F834C0536823F4802343EA0C03536084
:102C3000CA06CED50268D0F83CC0936823F480530E
:102C400043EA0C0393608A06C5D50268D0F840C0F9
:102C5000936823F4005343EA0C0393604A0615D5A6
:102C6000D0F800C0436CDCF80420B3F5801F22F4D8
:102C7000801242EA0302CCF8042007D1DCF80420D9
:102C8000836C22F4C0021A43CCF80420090658BF12
:102C900070470168C06C4A6822F400221043486003
:102CA00070470000B0B582B004460020C4F8900020
:102CB000FDF73AFF216805460A68120737D56FF01D
:102CC0007E4C20464FF4001100222B46CDF800C068
:102CD00000F0F8F950B300BF206850E8000F2168F9
:102CE00020F0800041E80002DAB1206850E8000FCF
:102CF000216820F0800041E8000292B1206850E88D
:102D0000000F216820F0800041E800024AB12068ED
:102D100050E8000F216820F0800041E80002002AFE
:102D2000DAD10320202188226BE000BF21680868E7
:102D300040075DD56FF07E4C20464FF480010022A5
:102D40002B46CDF800C000F0BDF9002850D000BFE0
:102D5000206850E8000F216820F4907041E80002DC
:102D6000BAB3206850E8000F216820F4907041E861
:102D7000000272B3206850E8000F216820F49070C0
:102D800041E800022AB3206850E8000F216820F4CF
:102D9000907041E80002002ADAD11AE0206850E879
:102DA000020F216820F0010041E80202DAB1206838
:102DB00050E8020F216820F0010041E8020292B1C0
:102DC000206850E8020F216820F0010041E802026B
:102DD0004AB1206850E8020F216820F0010041E864
:102DE0000202002ADAD1032020218C2209E000BF50
:102DF0002020C4F88800C4F88C0000217022002034
:102E0000E166A150002184F8841002B0B0BD00003A
:102E100070B5054605F108041ECC0068194341EA67
:102E20000403EE69046846F6F311CCF6FF71214005
:102E3000194331430160416848F2000C21F44051CC
:102E400011434160AA69C4F2000C60451CBF296AA5
:102E50000A4381684FF2FF43C1F2FF131940114347
:102E60008160C16AD5F824E021F00F0141EA0E012A
:102E7000C16244F6FF71C4F2000188424FF01003B2
:102E800018DC44F20041C4F20001884228D044F624
:102E90000001C4F20001884232D044F60041C4F27D
:102EA0000001884242D141F28801C4F2020109685E
:102EB0008B0933E045F20001C4F20001884217D0CB
:102EC000604525D043F60001C4F2010188422DD1AE
:102ED00041F28801C4F202010B6876A222E000BF31
:102EE00041F28801C4F2020109688B0816E000BFB4
:102EF00041F28801C4F2020109680B0A0EE000BF2A
:102F000041F28801C4F2020109680B0906E000BF22
:102F100041F28801C4F2020109688B0A46F60012E8
:102F2000C0F6000203F0030152F82130604542F27E
:102F30000040C0F2F40015D0B6F5004F22D1082BA6
:102F40004FF0010100F2AD80DFE803F0065C74ABE6
:102F500064ABABAB720000BFFEF764FE002840F02C
:102F60005D809AE0082B4FF0010100F29A80DFE8C3
:102F700003F0059825981B9898982300FEF752FEB9
:102F8000B0B98AE0082B4FF0010100F28A80DFE837
:102F900003F0053D6F88498888886D00FEF742FE82
:102FA000002842D179E000BFFEF768FE002874D007
:102FB000D5F824E002E000BF4FF4004046F6E801F7
:102FC000C0F6000131F81E106A68B0FBF1F002EBA8
:102FD000420188424FF0010163D31303984260D845
:102FE000010E000210EB520041F100010023FDF739
:102FF0000FF94FF60052A0F54071C0F20F02914256
:1030000049D34DE0FEF724FE40B946E0FEF720FE2E
:1030100058B942E0FEF732FE00283ED0D5F824E051
:1030200008E000BFFEF72AFEB8B3D5F824E01FE0A1
:103030004FF4004046F6E801C0F6000131F81E10DA
:103040006A68B0FBF1F0510801EB4000B0FBF2F010
:103050004FF6EF72A0F11001914221D84FF6F071B6
:103060000140C0F34200084415E000BF4FF40040A7
:1030700046F6E801C0F6000131F81E104FF6EF7277
:10308000B0FBF1F0696800EB5100B0FBF1F0A0F18A
:103090001001914204D82968C860002101E000BFF6
:1030A00001214FF00110A866002208466A67AA674E
:1030B00070BD00BF0100000004000000020000001D
:1030C000080000002DE9F041804600681546C269FD
:1030D0000E461140891BB1FA81F14909A94223D159
:1030E000069C2CB3611C29D1C1693140891BB1FAFE
:1030F00081F14909A94217D1C1693140891BB1FA4F
:1031000081F14909A9420FD1C1693140891BB1FA46
:1031100081F14909A94207D1C1693140891BB1FA3E
:1031200081F14909A942DFD00020BDE8F08100BF4C
:10313000FDF7FAFC0320BDE8F08100BF1F4607E061
:10314000C0693040801BB0FA80F04009A842EBD142
:10315000FDF7EAFCC01BA04200F2AE80D8F80000E8
:1031600001684907ECD5402EEAD0802EE8D0C1692D
:10317000090700F1A580C1690905E1D54FF4006197
:103180000162D8F8000050E8000FD8F8001020F4D1
:10319000907041E800020AB3D8F8000050E8000F30
:1031A000D8F8001020F4907041E80002B2B1D8F8CD
:1031B000000050E8000FD8F8001020F4907041E8AB
:1031C00000025AB1D8F8000050E8000FD8F80010FB
:1031D00020F4907041E80002002AD2D14FF6FE7030
:1031E000CEF6FF70D8F8001051E8021FD8F8002082
:1031F000014042E80213F3B1D8F8001051E8021F71
:10320000D8F80020014042E80213A3B1D8F800101A
:1032100051E8021FD8F80020014042E8021353B1E0
:10322000D8F8001051E8021FD8F80020014042E809
:103230000213002BD6D1D8F86C0001282CD1D8F875
:10324000000050E8000FD8F8001020F0100041E80E
:1032500000020AB3D8F8000050E8000FD8F80010B8
:1032600020F0100041E80002B2B1D8F8000050E8A8
:10327000000FD8F8001020F0100041E800025AB109
:10328000D8F8000050E8000FD8F8001020F0100027
:1032900041E80002002AD2D120200021C8F88C0089
:1032A000C8F86C10C8F87410C8F89000032088F8AB
:1032B0008410BDE8F08100BF0320BDE8F08100BFAD
:1032C00008210162D8F8000050E8000FD8F800107B
:1032D00020F4907041E800020AB3D8F8000050E8EA
:1032E000000FD8F8001020F4907041E80002B2B14D
:1032F000D8F8000050E8000FD8F8001020F49070C3
:1033000041E800025AB1D8F8000050E8000FD8F8A0
:10331000001020F4907041E80002002AD2D14FF64C
:10332000FE70CEF6FF70D8F8001051E8021FD8F8F2
:103330000020014042E80213F3B1D8F8001051E830
:10334000021FD8F80020014042E80213A3B1D8F8C8
:10335000001051E8021FD8F80020014042E8021393
:1033600053B1D8F8001051E8021FD8F800200140EE
:1033700042E80213002BD6D1D8F86C0001282CD1DA
:10338000D8F8000050E8000FD8F8001020F0100026
:1033900041E800020AB3D8F8000050E8000FD8F85E
:1033A000001020F0100041E80002B2B1D8F800008F
:1033B00050E8000FD8F8001020F0100041E800029B
:1033C0005AB1D8F8000050E8000FD8F8001020F0EB
:1033D000100041E80002002AD2D12020C8F88C0059
:1033E00000200821C8F86C00C8F87400C8F89010D4
:1033F00088F884000120BDE8F0810000FEE70000AD
:103400002DE9F04F81B02DED068B8AB00F460029D3
:103410004FF0FF0118BF002A00F0F5829A46002BFA
:1034200000F0F18200234107C2E90033C2E9023310
:10343000136153610992CDE9070700F08C80786829
:10344000FDF74AF99FEDE60B834653EC102B0F4630
:10345000FCF7C8FF0546BAF800000C46FDF73CF93A
:103460009FEDE10B064653EC102B8946FCF7BAFFA3
:1034700002460B4628462146FCF70DFF0446BAF9E2
:103480000200BAF904800D46FDF715F902460B4615
:1034900020462946FCF7A6FF9FEDD50B06900C466B
:1034A00053EC102B58463946FCF79CFF9FEDD20B8E
:1034B00005460F4653EC102B30464946FCF792FF69
:1034C00002460B4628463946FCF7E5FE02460B4607
:1034D000FCF788FF054640460E46FDF7ECF802462D
:1034E0000B4628463146FCF77DFF024606980B4600
:1034F0002146FCF7D0FE04460D46FDF7FAF89FED95
:10350000C00BCAF8240053EC102B20462946FCF7C8
:10351000DBFF9FEDBD9B044653EC192B0D4641ECA0
:10352000180BFDF75BF888B99FEDB9AB204653EC5B
:103530001A2B2946FDF737F8B0EE489AF0EE689A54
:10354000002804BFB0EE4A9AF0EE6A9A099ADDE9C3
:10355000070782ED029BC10700F07D81DAF82400A5
:10356000FDF7A9F89FEDAC0B53EC102BFCF73AFFDD
:103570009FEDAB0B53EC102BFCF78DFED346804632
:10358000BBF90A00BAF908A08946FDF794F802468B
:103590000B4640464946FCF725FF02460B4640468F
:1035A0004946FCF71FFF9FEDA00B55EC106B324610
:1035B0002B46FCF717FF074650460C46DA46FDF748
:1035C0007AF842464B46FCF70DFF3A462346FCF795
:1035D00062FE32462B46FCF705FF9FED950B56EC3D
:1035E000107B3A463346FCF7FDFE9FED930B53EC00
:1035F000102BFCF750FE0446BBF806000D46FDF705
:103600006BF802460B4620462946FCF7EBFE9FED81
:103610008C0B044653EC102B0D46FDF730F80028B8
:1036200040F01281BAF90C00BBF912100595BAF9F5
:103630000E50BBF910A00691FDF73DF8CDE9011041
:103640002846FDF738F802460B4640464946FCF747
:10365000C9FE054600914046494642464B46FCF7A6
:10366000C1FEB9460746504603940C46DA46FDF7BC
:1036700022F802460B4638462146FCF7B3FE4A467E
:103680003346B346FCF7AEFE0F4600990446284683
:103690002A460B46FCF7FFFD22463B46FCF7FBFDA6
:1036A0009FEDE30B53EC102BFCF79CFE9FEDE20B20
:1036B00004460D46DDE9011053EC102BFCF792FE99
:1036C00022462B46FCF7E7FD089F804638680D46EA
:1036D000FDF702F89FEDDA0B02460B4651EC100B9A
:1036E000FCF77AFE9FEDD80B06460C4653EC102BE8
:1036F00040462946FCF776FE02460B4630462146F8
:10370000FCF7C9FD9FEDD20B53EC102BFCF76AFEC2
:10371000039A059BFCF7D8FE8046BAF916000C46C2
:10372000FCF7C9FF02460B4640462146FCF75AFE0D
:1037300002460B4640462146FCF754FE9FEDC60B61
:1037400053EC102BFCF74EFE0546BAF914000E465A
:10375000FCF7B1FF02460B4640462146FCF742FE0D
:103760004A465B46FCF73EFE2A463346FCF793FD8D
:10377000054606980E46FCF79EFF02460B46284675
:103780003146FCF788FD9FEDB60B53EC102BFCF790
:1037900029FE02460B4640462146FCF77CFD9FED84
:1037A000A09B044653EC192B0D4641EC180BFCF77B
:1037B00015FF00284BD19FEDACAB204653EC1A2BE4
:1037C0002946FCF7F0FEB0EE489AF0EE689A002821
:1037D00004BFB0EE4A9AF0EE6A9A38E000BF00BF2C
:1037E000000000000000103F00000000000050BF7B
:1037F000000000000000E03E00000000000020BFCC
:10380000000000000000B44000000000000044C0C0
:103810000000000000405540000000000000E03FB4
:10382000000000000040EFC0000000000000C03EAB
:10383000000000000000003F000000000000F03F1A
:1038400000000000000000009FED759B089F099A92
:10385000079882ED009B400740F1D480DAF82400FD
:10386000D7F80880FCF727FF9FED810B53EC102B56
:10387000FCF711FD0446BAF91E000F46FCF71BFFCA
:103880000546BAF920000E46FCF715FF9FED7A0BAE
:1038900053EC102BFCF7A6FD02460B46204639469A
:1038A000A146BB46FCF79EFD9FED750B07460C46F7
:1038B00053EC102B28463146FCF794FD3A4623463C
:1038C000FCF7E9FC044640460D46FCF705FF22469E
:1038D0002B46FCF7E0FC0890BAF91A000791FCF7B8
:1038E000EAFE9FED690B53EC102BFCF77BFD069075
:1038F0009AF81C000591FCF7EFFE9FED650B57EC65
:10390000108B42463B46FCF76DFD4A465B464C46F3
:103910005D46FCF767FD9FED400B5646CDF810A0C5
:103920005AEC102B53460392FCF7B5FC814696F9EE
:1039300022008B46FCF7BFFE42463B46FCF752FD99
:1039400002460B4620462946FCF74CFD4A465B469C
:10395000FCF748FDDDF80C8053464246FCF79BFC23
:1039600007460C46DDE90510DDE90732FCF73AFDB4
:1039700006460D46484659463A462346FCF732FD70
:1039800002460B4630462946FCF72CFD05460498B6
:103990000F46007EFCF7A0FE02460B46284639463D
:1039A000FCF720FD9FED3C0B53EC102BFCF71AFDB0
:1039B00042465346FCF76FFC02460B462846394602
:1039C000FCF710FD9FED369B044653EC192B0D467A
:1039D00041EC180BFCF738FE88B99FED13AB20467D
:1039E00053EC1A2B2946FCF714FEB0EE489AF0EE81
:1039F000689A002804BFB0EE4A9AF0EE6A9A0998D5
:103A000080ED049B002148B20AB0BDEC068B01B0EA
:103A1000BDE8F08F00BF00BF000000000000F03FD5
:103A200000000000004CDD4000000000000000002D
:103A3000000000000000D0BF000000000000F0C047
:103A40000000000000003041000000000000303F96
:103A500000000000006AB840000000000000003EC6
:103A6000000000000000B03F0000000000DBFA4052
:103A70000000000000C0F2C000000000000010BF05
:103A800000000000000050C0000000000000F03EF8
:103A9000000000000000503E000000000000C0BE1A
:103AA00000000000000059402DE9F04790B00546A5
:103AB0006946E82001222B4600F0C4F810B110B08E
:103AC000BDE8F087E9469DF80080882049461A2223
:103AD0002B4600F0B7F80028F1D109F11A01E120D6
:103AE00007222B4600F0AEF80028E8D1FF254FF062
:103AF000000C4FF03C0E002219F80230C5F3C0173D
:103B0000C5F38016C3F380100EEA8501B7EBD31F0F
:103B100018BF81F03A0186420846C5F34016C5F346
:103B20000015C3F3001418BF80F01D00C3F3401745
:103B30002C1B18BF7424BE42C0F30016C3F38007C9
:103B400000F00F0018BF84F0E804C3F3C005F61BB3
:103B500084EA001018BF1D26B5EB511FC3F34001C6
:103B6000C0F3801403F0010318BF86F03A0686EA1A
:103B70000007E31A18BF1D2307F03F04B1EBD01F65
:103B800018BF83F03A0383EA8406202A09F802C0AA
:103B90004ED009EB020A9AF80150C7F34010C7F360
:103BA0000011C5F380140EEA8607B0EBD51F18BFCD
:103BB00087F03A07A1423846C6F34011C6F3001613
:103BC000C5F3001318BF80F01D00C5F34014F31AAD
:103BD00018BF7423A142C0F30014C5F3800618BFB8
:103BE00083F0E803A41B00F00F00C5F3C00118BF69
:103BF0001D2483EA0010B1EB571F18BF84F03A046C
:103C000084EA00018900C5F3400305F00106CDB246
:103C1000C0F38014B3EBD01F18BF85F03A05B4424F
:103C200018BF85F01D058AF801C0023264E700BFA5
:103C3000F0B280EA0800FF3818BF0120400010B041
:103C4000BDE8F08713B310B5D3F804E0BEF1000F60
:103C500016D094460A460146986888B1D86878B16B
:103C60009C7858786346012C18BF41F08001F047DA
:103C7000002818BF6FF00300BDE8104040B2704745
:103C8000FF20BDE8104040B2704700BFFF2040B2A7
:103C900070470000F0B587B00546002005900490FD
:103CA000A2B1546894B1906880B14FF0FF0051B157
:103CB000D36843B150780F46164604AAF72108236B
:103CC000A04738B1FC2040B207B0F0BDFF2040B2A1
:103CD00007B0F0BD9DF811109DF810009DF812205E
:103CE000090141EA00309DF814109DF8133040EAB4
:103CF0001210019008019DF8151040EA033040EAC7
:103D00001110BDF81610029048BA039006F1100386
:103D100001A928463A46FFF773FB40B207B0F0BD51
:103D2000B0B588B004460020002C8DF8030000F0E8
:103D3000DB806568002D00F0D780A068002800F0C7
:103D4000D380E068002800F0CF8060780DF1030296
:103D5000D0210123A84738BB9DF80300602823D158
:103D6000606860210028217000F0BE80A568002DE9
:103D700000F0BA80E068002800F0B680B620A27893
:103D80008DF804006078012A01AA4FF0010308BFF2
:103D9000E021A847E168054602208847002D5BD056
:103DA000FC2040B208B0B0BDE168012088476568DA
:103DB00075B1A06860B1E06850B160780DF10302A0
:103DC000D0210123A84718B99DF803006028C7D067
:103DD000E16801208847656875B1A06860B1E06856
:103DE00050B160780DF10302D0210123A84718B922
:103DF0009DF803006028B3D0E1680120884765681A
:103E000075B1A06860B1E06850B160780DF103024F
:103E1000D0210123A84718B99DF8030060289FD03E
:103E2000E1680120884765687DB1A06868B1E068F5
:103E300058B160780DF10302D0210123A84720B9C1
:103E40009DF8030060283FF48BAFE16801208847AC
:103E5000FE2040B208B0B0BD65680020ADF81C007F
:103E6000CDE90500CDE9030002900190E5B3A0681B
:103E7000D0B3E068C0B3607801AA88211A23A847AC
:103E800020B1FC2040B208B0B0BD00BFBDF80400B6
:103E900065682082DDF80600DDF80A10C4F812001B
:103EA000BDF81A00DDF80E20E0849DF81D00DDF855
:103EB000123084F82800DDF81600C4F81610C4F893
:103EC0001A20C4F81E30C4F822006DB1A06858B1A1
:103ED000E06848B1607801AAE1210723A84738B11A
:103EE000FC2040B208B0B0BDFF2040B208B0B0BD69
:103EF000BDF804009DF8081060859DF8060001F0EB
:103F00000F0384F82C009DF907009DF80A2043EA6E
:103F100000109DF90930E085180140EA1110208653
:103F200084F83220002040B208B0B0BD51B370B563
:103F300086B04D68002D5FD08A68002A5CD0CA68C0
:103F4000002A59D0064648780C460DF10202F421A9
:103F50000123A8479DF802200146002818BF6FF0F2
:103F6000030002F003028DF8022019B912B12046B5
:103F700000F03CFA010609D006B0BDE8704040B23E
:103F8000704700BFFF2040B2704700BF6568214600
:103F900095B3886880B3C86870B348780DF10302A0
:103FA000F4210123A84728B1FC2006B0BDE87040E9
:103FB00040B270479DF80300616866F301008DF818
:103FC0000300C9B1A568BDB1E168A9B1A2788DF8B7
:103FD000040060787421012A01AA4FF0010308BF90
:103FE000F421A847002818BF6FF0030006B0BDE811
:103FF000704040B2704700BFFF2006B0BDE870407F
:1040000040B2704761B370B586B04D68002D00F0C6
:1040100095808A68002A00F09180CA68002A00F022
:104020008D80064648780C460DF10202F4210123EA
:10403000A8479DF802200146002818BF6FF0030032
:1040400002F003028DF8022019B912B1204600F0E7
:10405000CDF9010608D006B0BDE8704040B2704707
:10406000FF2040B2704700BF21463246700708D09B
:1040700038313046224600F05DFA214632460028AB
:10408000E9D112F0180F15D04D68002D56D0886870
:10409000002853D0C868002850D048780DF103029A
:1040A000F5210123A84758B1FC2006B0BDE87040B7
:1040B00040B27047002006B0BDE8704040B2704783
:1040C000300705D4F00611D46068D8B936E000BFD7
:1040D0009DF8030094F83B1000F0E30001F00701A5
:1040E00040EA81008DF80300F006EDD59DF803004D
:1040F00094F83C1000F01F0040EA41108DF80300D6
:104100006068D8B1A568CDB1E068B8B19DF803008A
:10411000A2788DF8040060787521012A01AA4FF079
:10412000010308BFF521A847002818BF6FF003005E
:1041300006B0BDE8704040B2704700BFFF2006B037
:10414000BDE8704040B2704780B582B0019040F247
:10415000B800C2F2000001A901224FF6FF73FEF77A
:104160006FF9019802B080BDB2B0FDF73BF90024B1
:104170000020CDE91644CDE91444CDE91244FDF701
:10418000D1F94FF48071149140211591042102203E
:104190001A9155211190CDE91800CDE91B10CDE9F8
:1041A0001D0011A8FDF7ACFD20B1EFF3108072B631
:1041B000FEE700BF0F2001900320CDE9020401A813
:1041C0000421CDE90444FDF7ABFB28B1EFF31080E7
:1041D00072B600BFFEE700BFFEF7B6FBFEF70EFCAF
:1041E000FEF742FCFEF776FC11AC204600F060FAC8
:1041F000204600F079FA204600F0C2FB4FF4BB7075
:10420000ADF8050045F62170C0F60000029045F6B5
:104210005570C0F60000039045F61D70C0F6000012
:1042200001AC04902046FFF77BFD014608A001F099
:10423000ABFE2046FFF738FC10B90BA002F036FBAE
:1042400001AC11AD2046294600F01AF8FAE700BF8C
:1042500054686520696E697420726573756C74208A
:1042600069733A25640D0A00424D45323830207397
:10427000656C66207465737420706173730D000043
:104280002DE9F0412DED048B8AB0054640F2052062
:10429000C0F20140A86301200C4685F83C001F20B5
:1042A0002946FFF7AFFE03202946FFF73FFEE968E6
:1042B0004620884704A907202A46FFF7EBFC9DED1E
:1042C000040B9DED068B51EC100B9FED390B9DED12
:1042D000089B56EC107B3A463346FCF7F5F841EC68
:1042E000100B46F6201053EC182BC0F600008DED95
:1042F000000B8DED029B01F047FE46F66C18C0F6F0
:1043000000082046414600F045FB2BA32046002133
:104310000F220F2500F0F8FA20463421082202234C
:10432000009500F0EDF928A3204600211E2200F0A0
:10433000E3FA2AA3204600212D2200F0E5FA9DEDA4
:10434000060B51EC100BFCF7D4F9054620461E2154
:104350000F2243460095FEF707FC9DED040B3A46FD
:1043600051EC100B3346FCF7AFF8FCF7C2F90746E7
:10437000204621211E2243460097FEF7F5FB9DEDC6
:10438000080B51EC100BFCF7B4F9074620461E2130
:104390002D2243460097FEF7E7FB204600F0F0FA97
:1043A0000AB0BDEC048BBDE8F08100BF00BF00BFC8
:1043B000000000000000594054656D703A20202034
:1043C000202020204300000050726573733A2020A3
:1043D00020202020202020506100000048756D3AE8
:1043E000202020202020202500000000E0B12DE921
:1043F000F04188B04768002F00F09680816800295E
:1044000000F09280C168002900F08E800446407858
:104410000DF10702F2210423B84748B1FC2008B08F
:10442000BDE8F04140B27047FF2040B2704700BF86
:104430009DF807009DF8091000F007008DF80400B2
:10444000C1F382008DF8020048099DF80A608DF8DA
:1044500003006068C6F3820700284FEA56108DF803
:1044600005708DF806005FD0A5682346002D5BD04F
:10447000D868002858D0B6209A788DF80C00587863
:104480006021012A03AA98464FF0010308BFE021EA
:10449000A847D8F80C1005460220884735B1FC2003
:1044A00008B0BDE8F04140B2704700BF0DF1020115
:1044B0001F20224600F03EF80028B0D165689DB369
:1044C000A168204681B3C16871B340780DF10B0239
:1044D000F5210123A8470028E1D19DF80B0063686E
:1044E00000F0030040EA870006F0E00210448DF877
:1044F0000B00CBB1A7682146B7B1C968A1B1A278BA
:104500008DF80C0060787521012A03AA4FF0010391
:1045100008BFF521B847002818BF6FF0030008B0A6
:10452000BDE8F04140B27047FF2008B0BDE8F0415F
:1045300040B270472DE9F04186B00346400701D4F0
:10454000012052E0002A4FD0506800284CD09468D7
:10455000002C49D0D068002846D08878164600F054
:1045600007008DF80400507892781F460D4672219E
:10457000012A01AA4FF0010308BFF221A04728B188
:10458000FC20324629463B462FE000BF7468324685
:1045900029463B4644B3906830B3D06820B3507886
:1045A0000DF10302F4210123A0470028E8D170682F
:1045B000324600287AD09468002C77D0D068002842
:1045C00074D09DF8030074218DF80400507892781F
:1045D0000123012A01AA08BFF421A047324600287E
:1045E00018BF6FF00300CDE7FF209C0715D0002A0D
:1045F00056D05768002F53D09068002850D0D0680C
:1046000000284DD050781D460E4690460DF103020D
:10461000F4210123B84728B1FC2040B206B0BDE820
:10462000F08100BFE807304606D1002C454611D482
:104630006868D0B934E000BF9DF80310027801F03B
:10464000E30102F0070241EA82018DF80310002C19
:104650004546EDD59DF80310407801F01F0141EA71
:1046600040108DF803006868D0B1AF68C7B1E86842
:10467000B0B19DF80300AA788DF804006878742121
:10468000012A01AA4FF0010308BFF421B84700280E
:1046900018BF6FF0030040B206B0BDE8F08100BF64
:1046A000FF2040B206B0BDE8F08100BFFF2069E7FF
:1046B00010B546F6601145F2E17245F66553C0F655
:1046C0000001C0F60002C0F60003044600F004FA40
:1046D000204601F02DF82046002101F035F8204653
:1046E000BDE81040AFF3008080B5016890F8382035
:1046F000097C406B5143C900FBF7C2FD80BD00003F
:104700002DE9F04F85B00C46CD1A591CD61A0F1959
:10471000114403925FFA81FCE9B21D46F2B2FBB28A
:104720000290CDF800C000F0F7F8B8B30E990398E6
:104730002A46CDE900010298002123464FF0000BE4
:1047400000F010FA55B3ABEB450AC5F101084FF084
:10475000010900BF4FFA88F00AF10201B0F1FF3FF2
:10476000C2BF88448A46013D0BF1010B4FFA89F024
:10477000049500F10209EFB25FFA8BF50298234627
:10478000A446039C0E9E29463A46C844CDE90046FD
:10479000644600F0E7F9BD42049DDBD305B0BDE8F7
:1047A000F08F000070B582B0002B00F07F8090F891
:1047B0007CC0BCF1000F79D0DDF818C0022B09D302
:1047C000BCF1030F3AD0BCF1020F03D1C91A013179
:1047D00003E000BF5FEACC7C32D190F843C094453F
:1047E00064D890F844C0944560D990F841C090F8DE
:1047F00042E053FA81F4CBB2E5B27345664638BF66
:104800000E46A54208BF0E4673452346F1B238BF97
:10481000AEF10103A54208BF2B46714546D2DBB27B
:10482000634543D9614588BF8C46734538BF9E4672
:10483000AEEB0C034FF0000E614631E0D21A0132AC
:1048400090F841608E4231D890F842608E422DD966
:1048500090F843C090F844E053FA82F4D3B2E5B242
:104860007345664638BF1646A54208BF16467345CF
:104870002346F2B238BFAEF10103A54208BF2B4672
:10488000724513D2DBB2634510D9624588BF9446A6
:10489000734538BF9E46AEEB0C034FF0010E6246E7
:1048A000066BDBB2B668CDF800E0B04702B070BD71
:1048B00090F8433093421DD890F84430934219D970
:1048C00090F841308B4215D890F842308B4211D984
:1048D00090F87C30002B08BF704780B582B0036B26
:1048E0004FF0000ED3F808C00123CDF800E0E047F8
:1048F00002B080BD7047000045F2917CC0F6000C0C
:10490000C0F804C000F0AAB945F6996CC0F6000CD6
:10491000C0F804C000F0A2B910B590F84440DDF82A
:1049200008C090F843E0944206D962450AD8E645AB
:1049300024BF002010BD05E062454FF000021DD9E4
:10494000E6451BD290F8422090F841008A420BD9EC
:10495000002299424FF0000188BF0121984238BFE0
:10496000012241EA020010BD002299424FF00001ED
:1049700088BF0121984238BF01220A40104610BD6D
:1049800010B5044600F022FE2046BDE8104000F0BD
:10499000D5BE00002DE9F04F81B00446C06C8842BE
:1049A0005DD0E16408780D4684F86400487884F8A6
:1049B0006500887884F86600C87884F8670008790C
:1049C00084F86800487984F86900887984F86A0076
:1049D000C87984F86B00087A84F86C00487A84F807
:1049E0006D0091F90A9084F86E90C87A84F86F008F
:1049F00091F90C80084684F8708091F90D7084F864
:104A0000717091F90E6084F8726091F90FB084F8BA
:104A100073B091F910A0112184F874A000F088FC03
:104A2000A4F876002846132100F082FCA4F8780050
:104A30002846152100F07CFCA4F87A0094F87D004B
:104A400084F87E7084F87F6048B101280AD15F4500
:104A5000B8BF84F87EB05645C8BF84F87FA001B0C7
:104A6000BDE8F08F08EB0900B842C8BF84F87E00AB
:104A70004645C246F3DD84F87FA001B0BDE8F08F63
:104A800044F64D51C0F6000101657047B0B50446CB
:104A9000049884F838204FF48072A4F88120012211
:104AA00084F8832002680025C4E90B302046E564C1
:104AB00084F8395084F85F50616390474FF0FF20CD
:104AC000216BC4F845004968204688472046FFF717
:104AD000D7FF84F86250B0BD70B582B01C46134653
:104AE0000D4645F6314145F6B112C0F60001C0F65B
:104AF00000020646009400F02DFE0DF1070000F0C4
:104B00005DFD9DF8072045F239330146C0F60003EC
:104B100030460095FFF7BAFF02B070BD022B0BD0F4
:104B2000012B05D0002B14BF10440844C0B27047BD
:104B3000801AC0B2704700BF401AC0B27047000070
:104B4000022B0BD0012B05D0002B14BF401A1044B0
:104B5000C0B270470844C0B2704700BF801AC0B2EC
:104B6000704700002DE9F04381B0DDE90845984623
:104B700016468946E90707462ED1A8073FD42807DD
:104B800010D508EB0900A219C1B2D2B23846FFF71E
:104B90008FFE08EB060004EB0902C1B2D2B2384620
:104BA000FFF786FE68075CBF01B0BDE8F083A8EBA5
:104BB0000900A219C1B2D2B23846FFF779FEA8EBBC
:104BC000060004EB0902C1B2D2B2384601B0BDE81A
:104BD000F043FFF76DBE00BF08EB0900A21BC1B296
:104BE000D2B23846FFF764FE08EB0600A4EB0902D8
:104BF000C1B2D2B23846FFF75BFEA807BFD5A8EB1B
:104C00000900A21BC1B2D2B23846FFF751FEA8EB91
:104C10000600A4EB0902C1B2D2B23846FFF748FE43
:104C20002807AED4BEE7000010B582B090F83CE093
:104C3000DDF810C0C46AA2EB0E02D2B2CDF800C0FB
:104C4000A04702B010BD000080B582B0DDF810C0F2
:104C5000CDF800C0FFF7E8FF02B080BD2DE9F04FAE
:104C600081B01F4692460D4606464FF6FF7801F08A
:104C70000FF9726839783046904740455ED0A8F108
:104C800001017C1C4FF000091FFA81FB08E000BF06
:104C90008144726814F8011B3046904740454FD05C
:104CA00087B25F45F5D096F862205046032A294620
:104CB0001DD8DFE802F00317091100BF316D30463F
:104CC00088475044294612E0316D30468847AAEBA8
:104CD000000029460BE000BF316D3046884741197E
:104CE00004E000BF316D30468847291A504686F8E7
:104CF000581086F859003046394600F0B3FA48B1EA
:104D00000146304600F024F896F86210032906D9CF
:104D1000BEE700BF002096F862100329B8D8DFE88C
:104D200001F0050B030700BF2D1AB1E70544AFE7FB
:104D3000AAEB000AACE700BF8244A9E74FF00009E4
:104D40005FFA89F001B0BDE8F08F000000207047E5
:104D50002DE9F04F8BB080464165002088F85E0059
:104D600098F868000B784FF0FF32082831BF0546ED
:104D70000131C8F85410A0F1080502FA00F023EA46
:104D8000000098F8693088F85E5088F85C005F1978
:104D90000E78FCB2082CECB226FA04F60AD34C1CAE
:104DA000C8F85440C5F108054978EDB2A9400E4352
:104DB000083F21469A4098F8823026EA0202039280
:104DC00088F85D2098F86A2088F86030B3FA83F399
:104DD0005B0988F85E7088F86130BC180B78E6B221
:104DE000082EFEB223FA06FC0BD34E1CC8F8546002
:104DF000C7F108074978FFB2B9404CEA010C083CFA
:104E0000314698F86B7088F85E403D190E78EBB229
:104E1000082BE3B226FA03F60AD3C4F108034C1CAC
:104E2000C8F854404978DBB299400E43083D21460A
:104E30004FFA80F998F86C0088F85E500290284488
:104E40000B78C4B2082CECB223FA04FA0AD3C5F1E9
:104E500008034D1CC8F854504978DBB299404AEA1F
:104E6000010A0838B9F1010F88F85E00C0F2EA8142
:104E70004FF0FF30511E00FA02F2C9B22CEA0202D2
:104E800000FA01F111447A1E4CB2D1B20122B840AD
:104E900002FA01F1039A26EA00001044091A98F870
:104EA000626098F858004FB221463A463346FFF701
:104EB00035FE054698F8590021463A46334688F8AB
:104EC0005850FFF73DFE032E88F8590022D8DFE83E
:104ED00006F00319091100BF039905EB090301440A
:104EE0001AE000BFA5EB09016B1C4D1C0399421A87
:104EF00004E000BF0399A0EB09026B18411C501C91
:104F00000AE000BF03996B1C691A4D1C00EB0901F4
:104F100002E000BF2B460146CFB2E9B2C2B2DBB21B
:104F200040460097FFF7F8FC002800F08B8198F8C6
:104F30005E20D8F8546000204FF000094FF0000EBA
:104F4000A8F85A00CDF81880CDF810A007E000BFEF
:104F500003984FFA89F140B2814280F26F8198F84C
:104F600066C0337802EB0C07D0B2FDB2082D23FAED
:104F700000F30AD3751CC8F85450C2F108027078C7
:104F8000D2B290400343083F2E4698F8672088F835
:104F90005E70D1193578CCB2082CFCB225FA04F534
:104FA00009D3741CC8F85440C7F108077078FFB2E1
:104FB000B840054308394FF0FF3707FA0CF023EAF1
:104FC0000000099007FA02F025EA0000089088F82E
:104FD0005E1003E0C80788F85E20B9D098F85F102B
:104FE00098F85C0000290999A0EB0E055FFA81FA98
:104FF0005FFA85FB04D0D34530D9099F4C4685E044
:1050000098F8626098F859004FFA8EF44FFA89F7D1
:1050100021463A463346CDF81CE0FFF791FD98F85B
:1050200058100A90084621463A463346FFF776FD67
:1050300001465B4698F86100DA4538BF53460A9A44
:1050400088F8820040460096FFF7ACFBD34521D993
:10505000099FDDE907E04C4659E000BF09994C463D
:105060004F1BF9B2814209F101044DD33F1AF9B245
:10507000814243D33F1AF9B2814241D33F1AF9B278
:1050800081423FD33F1AF9B2814204F10404EDD2C8
:105090003AE000BF09984C46401B04E0F8B2A84231
:1050A000A7EB050030D398F85F100746601C98F80E
:1050B0005C50002944B2F1D198F8626098F8590028
:1050C000002122463346FFF73BFD98F858108146F1
:1050D0000846002122463346FFF720FD014698F896
:1050E0006100FBB2AB4228BF2B4688F882004046E5
:1050F0004A460096FFF756FBD0E700BF013403E0B5
:10510000023401E0033400BF4FF0000E089898F815
:10511000592007EB0E010A9298F85C204FFA81F9AA
:1051200088F85A10511A234698F862A0CEB25FFA56
:1051300080FB88F85B4098F8580034465FB20591D0
:10514000B34538BF5C46079349463A465346454601
:10515000FFF7E4FC80460A9849463A465346CDF8A4
:105160002890FFF7EDFC95F86010024685F8821054
:10517000284641462346CDF800A0FFF713FB5E45C5
:1051800002D9DDE9076534E008980599DDE906B63E
:10519000401A00BF0546701C9BF859109BF85C40F4
:1051A0009BF8627046B29BF858005FFA85F80A9146
:1051B000A146002132463B46A04538BFC146FFF715
:1051C000ADFC82460A98002132463B46FFF7B8FC08
:1051D0009BF8601002468BF88210584651464B46A9
:1051E0000097FFF7DFFAA045A5EB0400D2D200201C
:1051F0000A900A98DDF8188005EB000EB14688F891
:105200005B60D8F8546098F85E3088F85AE03178DE
:105210005A1CD7B2DDF810A0082F21FA03F1FFF4D1
:10522000D9AE701CC8F85400C3F108027778D2B226
:1052300007FA02F21143DA1F0646CBE698F860003F
:1052400088F88200029A4FF0FF3000FA02F1013A2A
:10525000D2B22AEA01019040084440B20BB0BDE846
:10526000F08F000070B50C46C16CFF2C01F11701E6
:1052700004D8612C36D3B0F8780037E0B0F87A0063
:105280000E1835462846002100F052F806442846FC
:10529000022100F04DF8A04205F10405F2D3308858
:1052A00040BA00283ED0A0423ED0B078315A49BA28
:1052B000C1B3A142064437D0B078315A49BA89B354
:1052C000A142064430D0B078315A49BA51B3A14214
:1052D000064429D0B178705A0E4440BA0028E2D171
:1052E00020E000BF412C02D3B0F87600014448789A
:1052F000C0B10A78A24219D00144487890B10A7826
:10530000A24213D00144487860B10A78A2420DD07D
:105310000144487830B10A78A24207D00144487865
:105320000028E6D1002070BDF01C70BD881C70BD47
:10533000405A00BA000C70472DE9F04102F0070412
:10534000012690F88250A640022DB44628BF4FF0A7
:10535000000CB5F1010E18BFB6460568466B2D7CF2
:10536000DDF8188002F0F80715FB0765B8F1000FAB
:10537000294417D013F00306A3F1010800F0AB8015
:105380000C7844EA0C0484EA0E07541C14F0070459
:105390000F701DD04FEA4C0C4FEA4E0E012E24D157
:1053A000434698E013F00302A3F101003AD00C78D1
:1053B000012A44EA0C0484EA0E050C4604F8015B59
:1053C00026D103462146C0B203282FD2F4E000BF05
:1053D00090F83A7090F8825039440127012D98BF17
:1053E000BC4618BFBE46012EDAD00C7844EA0C0445
:1053F00084EA0E05941C14F007040D7036D04FEAB1
:105400004C0C4FEA4E0E022E3DD1023B63E000BF32
:105410004C78022A44EA0C0484EA0E044C7043D10E
:105420000231023BC0B20328C0F0C680081F00BF93
:1054300010F8041F043B41EA0C0181EA0E010170DF
:105440004178827841EA0C0181EA0E01C47841700A
:1054500042EA0C0181EA0E01817044EA0C0181EA02
:105460000E011A06C170E3D1A6E000BF90F83A50D1
:1054700090F8827029440125012F98BFAC4618BFCF
:10548000AE46022EC1D00C78033244EA0C0484EA02
:105490000E040C7012F00704A3F1030310D04FEABE
:1054A0004C0C4FEA4E0E16E08A78033B42EA0C029F
:1054B00082EA0E028A700331C0B20328B6D27BE0C2
:1054C00090F83A2090F8825011440122012D98BFA3
:1054D000944618BF96465FFA88F2032A38BFBDE8A3
:1054E000F08101220DE000BF90F83A5090F8826000
:1054F0002944012E98BF944618BF9646043B1D06CA
:105500005AD00D78661C45EA0C0585EA0E0576072B
:105510000D7005D04FEA4C0C4FEA4E0E0AE000BF6A
:1055200090F83A5090F882602944012E98BF944632
:1055300018BF96460D78A61C45EA0C0585EA0E05AF
:1055400076070D7004D04FEA4C0C4FEA4E0E09E07E
:1055500090F83A5090F882602944012E98BF944602
:1055600018BF96460D78E61C45EA0C0585EA0E053F
:1055700076070D7004D04FEA4C0C4FEA4E0E09E04E
:1055800090F83A5090F882602944012E98BF9446D2
:1055900018BF96460D7804F0070445EA0C0585EA25
:1055A0000E0594F004040D709ED04FEA4C0C4FEAA7
:1055B0004E0E043B1D06A4D1BDE8F081014640F229
:1055C0004C100822C2F200000A7070472DE9F04F1B
:1055D00081B0834690F8388000689BF8396090F875
:1055E0001190002501274FF6F87A00BFDBF8000084
:1055F000F2B2037CDBF8340005FB03F101EA0A0197
:10560000441858460021009400F07EF8474506D221
:105610000136F0B20835484507F10107E6D301B07D
:10562000BDE8F08FB0B590F838200568D30080F859
:105630003B302B7C95F811C01F2B28BF1F234FEA4E
:10564000C30E90F8393080F83AE0D9009C1880F801
:105650003C10644588BFACEB030280F83D10D118C4
:10566000C900AA8A80F83E10F021F02A80F83F1085
:1056700098BF80F83F20A97D80F84010B0BD0000A1
:1056800070B582B0044690F83F0094F8451084F855
:105690004200B4F83D0094F8463094F8472094F85E
:1056A00048500026A4F84300204684F84160009545
:1056B000FFF732F920B394F8411094F84500012225
:1056C000814284F87C2038BF84F8410094F842106D
:1056D00094F84600814288BF84F8420094F8431051
:1056E00094F84700814238BF84F8430094F844108E
:1056F00094F84800814288BF84F8440002B070BD2D
:1057000084F87C6002B070BD80B582B0DDF810C056
:10571000D0F808E08DF805108DF806208DF80430DB
:105720006B460F210122CDF800C0F04702B080BDCA
:10573000D0F808C00A21002200236047D0F808C032
:105740001021002200236047D0F808C00A460B2130
:105750000023604710B54FF47F44DDF808C0A0F87F
:105760002340FF244FF0000E80F8284000F1080489
:10577000C0F800E080F826E084E80E50BDE8104054
:10578000AFF30080D0F808C0092100220023604751
:1057900000294FF6FF7008BF70470A2918BF084656
:1057A00070470000D0F810C0192100220023604784
:1057B00080B582B08DF807100DF10702012100F0CD
:1057C00003F802B080BD0000D0F810C013460A46AE
:1057D00017216047D0F810C018210022002360472D
:1057E00070B582B014390C294FF000004AD8DFE8B8
:1057F00001F00749490D29334949494949490900F7
:10580000FDF7FCF8012002B070BD00BF002AF9D0FE
:1058100040F24C5CC2F2000C9CF800E012F0030570
:1058200032D01C4614F8016B40F24D500EF10101CC
:10583000C2F20000012D00F80E6027D1501E234651
:1058400037E000BF40F24C50C2F20000002101706E
:10585000012002B070BD00BF40F24C50C2F2000007
:10586000037840F2100040F24D524FF47A76C2F2C3
:105870000000C2F2000278210096FBF7FDF9002833
:10588000C0D0002002B070BD104613E05E780EF16B
:105890000204C9B2022D465404D10233901E21469F
:1058A000A64607E09D78E6B20EF103018555033365
:1058B000D01E8E46042A19D31A1F40F24D53C2F24D
:1058C0000003714612F8046FCCB21E554D1C567879
:1058D000EDB25E558C1C9678E4B21E55CD1CD67880
:1058E00004380431EDB204065E55EBD18CF800109B
:1058F000012002B070BD0000D0F80CC019210022B8
:1059000000236047D0F80CC00A46162100236047E8
:10591000D0F80CC00A46152100236047D0F80CC00F
:1059200013460A4617216047F0B581B00E4604467B
:105930000DF103050AE000BFA1F11800022817D2FB
:10594000E668204600220023B0473E46374617F857
:10595000011B1729F0DCA1F11500022814D272787E
:10596000E768204600238DF80320B8470236EDE7AC
:10597000FE2915D17278204629218DF8032000F0E8
:105980006BFA0236E2E700BF172909D170780121CE
:105990008DF8030020462A46FFF7C0FF0236D5E700
:1059A00001B0F0BDD0F80CC01821002200236047E0
:1059B000F0B581B01439052900F2F280DFE801F07A
:1059C00004C61C2212E200BF90F82410FF2904BF75
:1059D000782180F82410D0F810C0142101B0BDE85F
:1059E000F040604740F2CD50C2F20000002101704B
:1059F000012001B0F0BD00BF1146FFF7D9FE012024
:105A000001B0F0BD40F2CD55C2F200052978012960
:105A100007D1044616461F46FFF7C4FE3B463246F2
:105A20002046192AC0F0C280182116461A4604469C
:105A30001F4600F015FA3046A6F11800C2B2192A26
:105A400007F118033946C0F0AF80204618211A46E6
:105A500000F006FA3046A6F13000C2B2192A07F16A
:105A600030033946C0F0A080204618211A4600F0C5
:105A7000F7F93046A6F14800C2B2192A07F14803E7
:105A80003946C0F09180204618211A4600F0E8F906
:105A90003046A6F16000C2B2192A07F16003394608
:105AA000C0F08280204618211A4600F0D9F930460D
:105AB000A6F17800C2B2192A07F17803394673D3E8
:105AC000204618211A4600F0CBF9304606F1700046
:105AD000C2B2192A07F19003394665D3204618212E
