:020000040800F2
:1000000050050020ED010008892900081924000886
:100010008529000809090008ED31000800000000EA
:10002000000000000000000000000000912900080E
:100030000D090008000000008D290008952900081E
:10004000070200080702000807020008070200086C
:10005000070200080702000807020008070200085C
:10006000070200080702000807020008070200084C
:10007000070200080702000807020008070200083C
:10008000070200080702000807020008070200082C
:10009000070200080702000807020008070200081C
:1000A000070200080702000807020008070200080C
:1000B00007020008070200080702000807020008FC
:1000C00007020008070200080702000807020008EC
:1000D00007020008070200080702000807020008DC
:1000E00011090008070200080702000807020008BB
:1000F00007020008070200080702000807020008BC
:1001000007020008070200080702000807020008AB
:10011000070200080702000807020008070200089B
:10012000070200080702000807020008070200088B
:10013000070200080702000807020008070200087B
:10014000070200080702000807020008070200086B
:10015000070200080702000807020008070200085B
:10016000070200080702000807020008070200084B
:10017000070200080702000807020008070200083B
:10018000070200080702000807020008070200082B
:10019000070200080000000007020008070200082C
:1001A000070200080702000807020008070200080B
:1001B00007020008070200080702000807020008FB
:1001C00007020008070200080702000807020008EB
:1001D0000702000807020008DFF80CD000F07CFBE3
:1001E00000480047593F0008500500200648804756
:1001F00006480047FEE7FEE7FEE7FEE7FEE7FEE70C
:10020000FEE7FEE7FEE7FEE799290008D9010008AE
:100210002DE9F05F0546002092469B46884606463B
:10022000814640241BE0284641464746224600F0CE
:10023000A4FA53465A46C01A914110D311461846A3
:10024000224600F08BFA2D1A67EB01084F46224632
:100250000120002100F082FA17EB00094E41201E18
:10026000A4F10104DFDC484631462A464346BDE896
:10027000F09FD2B201E000F8012B491EFBD270477B
:100280000022F6E710B513460A4604461946FFF762
:10029000F0FF204610BD2DE9FE4F804681EA0300A5
:1002A000C00F0C46009021F0004123F00045B8EB50
:1002B0000200A94105D24046214690461C460B4605
:1002C000024623F00040104347D0270DC7F30A0031
:1002D000C3F30A510290401A019040286BDAC3F32D
:1002E000130040F4801B0098924620B10023D2EB0B
:1002F000030A63EB0B0B01985946C0F140025046CC
:1003000000F02CFA06460D4650465946019A00F078
:1003100044FA10EB08006141002487EA115284EA94
:10032000E7731A4340D0009A62B3019A012A4FEA58
:10033000075215DC001B61EB02014FF0004202EA9C
:100340000752CDE90042001C41F5801132462B4690
:1003500000F044FA03B0BDE8F08F40462146F9E7CB
:10036000001B61EB0201001C41F5801300185B418A
:100370002018A2F5001747EB030140EAD570B61923
:100380006D4111E06D084FEA360645EAC0754FEA47
:100390000752001B61EB0201001C41F58011490866
:1003A0004FEA30000019514132462B4603B0BDE8F8
:1003B000F04F00F004BA0098012240000023D0EB77
:1003C000020263EBE073009821464FEAE074B8EB59
:1003D000000061EB0401E9E783F000435BE781F093
:1003E000004158E72DE9FE4F81EA030404F0004480
:1003F00021F0004100944FF0000B23F0004350EA3D
:1004000001045ED052EA03045BD0C3F30A54C1F383
:100410000A552C44A4F2F3340194A0FB0254C1F316
:10042000130141F48011C3F3130343F4801301FB60
:10043000024400FB034E840A970A44EA815447EAC7
:100440008357A4FB076802958D0A05FB07854FEAD1
:10045000932C04FB0C542705029D4FEA065847EAEB
:100460001637B5EB08056EEB070C870E920E47EAC0
:10047000811742EA8312A7FB0201B6EB0B0164EB82
:1004800000042B0D43EA0C335E1844EB1C50DA4693
:100490005146E7FB0201C5F313044FEA0B3343EA6D
:1004A00014534FEA0432019C43EA0603A4F10C04FE
:1004B0000294009CCDE900B400F090F903B0BDE8CF
:1004C000F08F00200146F9E72DE9F04D81EA0304A1
:1004D00004F0004B21F0004514464FF0000A23F0D1
:1004E000004150EA050220D054EA01021DD0C5F3B4
:1004F0000A570246C5F31303C1F31300C1F30A56AA
:1005000040F4801543F48013A7EB0608101BD64671
:1005100008F2FD3873EB050002D308F1010801E091
:1005200092185B41B8F1000F03DA00200146BDE8E4
:10053000F08D00204FF48011064684460EE0171B14
:1005400073EB050705D3121B63EB050306434CEA67
:10055000010C49084FEA300092185B4150EA01074C
:10056000EDD152EA030012D082EA040083EA0501C9
:10057000084305D0101BAB4106D20122002306E040
:1005800000224FF0004302E06FF0010253101AEB1B
:1005900006004CEB085110EB0A0041EB0B01BDE8E3
:1005A000F04D00F00CB930B5041E71F1000404DB0D
:1005B0004FF00044404264EB0101141E73F100044B
:1005C00005DB1C464FF00043524263EB0403801AE4
:1005D000994101D3012030BD002030BD30B5041E4B
:1005E00071F1000404DB4FF00044404264EB010170
:1005F000141E73F1000405DB1C464FF00043524209
:1006000063EB0403101A8B4101D2012030BD00209E
:1006100030BD30B5041E71F1000404DB4FF000441E
:10062000404264EB0101141E73F1000405DB1C461B
:100630004FF00043524263EB0403101A8B4101D385
:10064000012030BD002030BD30B5041E71F1000422
:1006500004DB4FF00044404264EB0101141E73F1CF
:10066000000405DB1C464FF00043524263EB0403D9
:10067000801A994101D2012030BD002030BD30B533
:10068000041E71F1000404DB4FF00044404264EBAF
:100690000101141E73F1000405DB1C464FF00043FA
:1006A000524263EB040342404B401A4301D0002006
:1006B00030BD012030BD0EB5C10F80EAE0700844A6
:1006C000CA07002140F233438DE80E000A460B466C
:1006D00000F084F803B000BD0EB540F23341029142
:1006E0000021CDE900110A460B4600F077F803B06F
:1006F00000BD70B5C1F30A5201F000450024C1F3FA
:10070000130140F2FF3341F480119A4201DA0020D4
:1007100070BD40F233439A42A2F2334203DC5242AC
:1007200000F02BF800E090402C43F1D0404270BD27
:1007300030B50B46014600202022012409E021FAB1
:1007400002F59D4205D303FA02F5491B04FA02F5AE
:100750002844151EA2F10102F1DC30BD202A04DB81
:10076000203A00FA02F1002070479140C2F12003C4
:1007700020FA03F3194390407047202A04DB203A03
:1007800021FA02F00021704721FA02F3D040C2F1B1
:1007900020029140084319467047202A06DBCB17F8
:1007A000203A41FA02F043EAE07306E041FA02F32C
:1007B000D040C2F12002914008431946704710B55D
:1007C000141E73F1000408DA401C41F10001921874
:1007D0005B411A4301D120F0010010BD2DE9F04D1D
:1007E00092469B4611B1B1FA81F202E0B0FA80F272
:1007F00020329046FFF7B2FF04460F4640EA0A0057
:1008000041EA0B0153465A46084313D0114653EAB6
:10081000010019D0C8F140025046FFF7AEFF05466F
:100820000E46504659464246FFF798FF084305D00A
:10083000012004E020463946BDE8F08D0020054344
:1008400046EAE0762C4337430A986305E40AA0EBB6
:1008500008000022FD0A44EA47540A3002D500206D
:100860000146E9E7010510196941DDE9084500196C
:100870006941BDE8F04DA2E7C1F30A52C1F313018B
:1008800040F2FF3341F480119A4202DA002001461F
:10089000704740F233439A42A2F2334202DC5242A2
:1008A000FFF76BBFFFF75ABF30B5041E71F10004AC
:1008B00004DB4FF00044404264EB0101141E73F16D
:1008C000000405DB1C464FF00043524263EB040377
:1008D000994208BF904230BD1CB5094800900948B4
:1008E00001900546009C06E0E06840F0010394E8B2
:1008F000070098471034AC42F6D3FFF771FC0000B4
:10090000304E0008504E0008FEE70000704700001F
:100910004FF4005000F01CB8EFF3108072B600BF27
:10092000FEE70000B0B5044600F0FEF8054640F2D0
:100930000400C2F200004068611C18BF044400BFFC
:1009400000F0F2F8401BA042FAD3B0BD704700009F
:1009500040F21441C4F201010A68024214BF086067
:100960007047FFF7F3BF00002DE9F04F83B00E682A
:10097000002E00F0CF8000F1200241F2004C0092E6
:1009800000F13847C4F6000C06224FEAB72560454F
:1009900008BF0522052D38BF4FEAB72200250027E2
:1009A0004FF0000801920AE00E6808F1010836FADB
:1009B00008F207F1020705F1040500F0AB800122FF
:1009C00002FA08FE16EA0E09EED0D1F804C003229E
:1009D0000CF0030BABF1010602FA07F4012E6FEAEB
:1009E000040A11D88468CE6804EA0A04BE4034437D
:1009F0008460446824EA0E06CCF3001404FA08F478
:100A00002643466006E000BFBBF1030F02D14FF062
:100A1000030B21E0C6688C6806EA0A06BC40264340
:100A2000BBF1020FC66017D16FF00302009B02EA10
:100A3000580605F01C020F2453F806C004FA02FE03
:100A40000C692CEA0E0C04FA02F242EA0C029A51EA
:100A5000D1F804C00CF0030B02680BFA07F302EAAA
:100A60000A021A431CF4403F02609DD041F2600329
:100A7000C4F202031A6840F2004E42F001021A600A
:100A80001A68C4F2010E02F001020292029A28F0E2
:100A900003024FF6084C7244CFF6FF7C52F80C303C
:100AA00005F00C060F24B440A343019C04FA06F69B
:100AB000334342F80C30DEF808204B6842EA09065E
:100AC00040F20C4CDC0258BF22EA0906CEF808605E
:100AD000C4F2010CDCF800209C0242EA090658BF6F
:100AE00022EA0906CCF80060DEF804209C0342EA02
:100AF000090658BF22EA0906CEF80460DEF8002095
:100B0000DB0342EA090658BF22EA0906CEF8006074
:100B10004AE700BF03B0BDE8F08F00001823002AA9
:100B200008BF2823C150704740F24C10C2F20000A9
:100B30000068704790F84120202A03D190F84020A7
:100B4000012A01D102207047242280F84120026846
:100B5000136823F001031360136823F480531360B8
:100B6000136819431160116841F0010111602021DF
:100B700080F84110002180F84010002070470000EC
:100B800090F84120202A03D190F84020012A01D179
:100B900002207047242280F841200268136823F065
:100BA00001031360136823F4706343EA01211160A9
:100BB000116841F001011160202180F841100021ED
:100BC00080F8401000207047002804BF01207047C3
:100BD00010B590F8411031B9002180F8401004465A
:100BE00000F08AFA2046242180F8411090E8121083
:100BF000C3680A68012B22F001020A6024F07062C7
:100C00000A618A6822F400428A6003D14CF40042EF
:100C10008A6009E04CF40442022B8A6004D14A68DD
:100C200042F4006203E000BF4A6822F400624A60B6
:100C30004A6800F1100C42F0007242F400424A602F
:100C4000CA6822F40042CA609CE81C101A4342EAB7
:100C50000422CA60026A42EA0C020A600A6842F090
:100C600001020A6000212022416480F841200163D2
:100C700080F84210002010BD2DE9F04F83B00446EB
:100C800090F84100202807D10C9F4FB10D9E3EB136
:100C900094F8400001280BD1022003B0BDE8F08F8A
:100CA0004FF400706064012003B0BDE8F08F00BF16
:100CB00001209A469346884684F84000FFF734FFA7
:100CC000216805468A6912044BD4222084F8410029
:100CD00040204FF0000984F84200C4F84490676255
:100CE0006685C4F8349049F600034A68CFF600439D
:100CF0006FF39F285FFA8AF048EA00401A40DDF857
:100D000038C0104400F50050CDF8088048602046F7
:100D100061462A461E46674601F0DEFCC0B92068DF
:100D2000BAF1010F09D04FEA1B21816220463946F2
:100D30002A4601F0D1FC58B920685FFA8BF1816234
:100D40002046402100223B46009501F015FC48B3A7
:100D500084F84090012003B0BDE8F08F886900045A
:100D6000B3D5204619212A4601F058FB00289AD114
:100D7000FFF7DAFE401B21681A28EFD388690004C8
:100D8000ECD5606C40F020006064202084F84100C5
:100D9000002084F8420084F84000012003B0BDE840
:100DA000F08F00BF608D40F20009B0F5807FC0F287
:100DB000FF1909D3206809F5105350F8041F4FF0AC
:100DC000FF0C01EA06020BE0B4F82AC020685FFAC3
:100DD0008CF350F8042F324042EA034209F5923373
:100DE00002991A430A434FF0FF0B06F58068026030
:100DF000A4F828C012E000BF618D2068218550F85A
:100E0000042FC9B202EA080242EA01414FF000721F
:100E1000029B114319430160608D98B32046042161
:100E200000223B46009501F0A7FB00287FF43BAF72
:100E30002068616A406A0870606A218D01306062D2
:100E4000481E2085618D01396185618D0029E3D0BF
:100E50000004E1D12046802100223B46009501F0AC
:100E60008BFB00287FF41FAF608DB0F5807FC3D36C
:100E70002068A4F828B050F8041F4A4601EA080187
:100E8000C6E700BF204639462A4601F0E7FB0028A6
:100E90007FF409AF20682021C16142684EF600034B
:100EA000CFF600631A404260002084F8411084F8B5
:100EB000420084F8400003B0BDE8F08F2DE9F04F08
:100EC00081B0044690F84100202807D10A9F4FB115
:100ED0000B9E3EB194F8400001280BD1022001B0D6
:100EE000BDE8F08F4FF400706064012001B0BDE8F0
:100EF000F08F00BF01209A4691468B4684F840004F
:100F0000FFF712FE216805468A6912044DD421209C
:100F10000C9A84F8410040204FF0000849F6004345
:100F200084F84200C4F8448067626685C4F834805F
:100F3000CFF600436FF39F2B5FFA8AF017464A689B
:100F40005E464BEA00409B46A3F580631A4010447E
:100F500040F0807040F400504860204639462A46F0
:100F600001F0BAFBC0B92068BAF1010F09D04FEA0D
:100F700019218162204639462A4601F0ADFB58B955
:100F800020685FFA89F181622046802100223B4679
:100F9000009501F0F1FA48B384F84080012001B0D7
:100FA000BDE8F08F88690004B1D5204619212A4692
:100FB00001F034FA002898D1FFF7B6FD401B2168F4
:100FC0001A28EFD388690004ECD5606C40F020004B
:100FD0006064202084F84100002084F8420084F8F6
:100FE0004000012001B0BDE8F08F00BF608D40F2ED
:100FF0000009B0F5807FC0F2FF1909D320684FF0D7
:10100000FF0C50F8041F4B4601EA0B020DE000BF35
:10101000B4F82AC020685FFA8CF350F8042F02EA73
:101020000B0242EA03424FF000731A4332434FF07F
:10103000FF0831460260A4F828C011E0618D2068E5
:10104000218550F8042FC9B202EA0B0242EA01419D
:101050004FF000721143314333460160608D78B325
:10106000204639462A4601F037FB00287FF43DAF81
:10107000606A216810F8012B8A626062608D013815
:101080006085208D01382085618D0029E6D000041F
:10109000E4D12046802100223B46009501F06CFA05
:1010A00000287FF422AF608DB0F5807FC6D3206822
:1010B000A4F8288050F8041F4A4601EA0B01C9E74A
:1010C000204639462A4601F0C9FA00287FF40DAFC0
:1010D00020682021C16142684EF60003CFF600630C
:1010E0001A404260002084F8411084F8420084F8DD
:1010F000400001B0BDE8F08F10B59CB00446002060
:101100001B90CDE91900CDE9170002A85421FFF783
:10111000B7F8206847F60001C4F20001884233D0D6
:1011200045F60001C4F2000188425FD180200290A0
:1011300002A800F09DF9002818BFFFF7EDFB41F26F
:101140004C04C4F20204206817A940F0010020609A
:10115000206800F00100019001984FF44070179052
:10116000122018900120199003201A9004201B903F
:101170004FF09040FFF7F8FBE06840F48000E0603B
:10118000E06800F480002FE04FF48070029002A825
:1011900000F06EF9002818BFFFF7BEFB41F24C04C7
:1011A000C4F20204206817A940F0040020602068FF
:1011B00000F00400019001984FF440701790122045
:1011C00018900120199003201A9008201B9040F6D7
:1011D0000000C4F60000FFF7C7FBE06840F0804065
:1011E000E060E06800F08040019001981CB010BD04
:1011F00040F2040040F24C11C2F20000C2F20001C1
:1012000040680A68104408607047000080B50320F9
:1012100000F08CF80F2000F009F800281CBF012016
:1012200080BD00F02BF8002080BD0000B0B540F27A
:101230000405C2F200056968F1B1044640F20C00F1
:10124000C2F200004FF47A720068B2FBF1F1B0FB19
:10125000F1F000F0D1FE01460F2C4FF001000AD84A
:10126000002918BFB0BD4FF0FF302146002200F02A
:1012700031F800202C60B0BD0120B0BD82B041F239
:101280005800C4F20200816841F001018160816868
:1012900001F0010101910199016841F08051016063
:1012A000006800F080500090009802B000F0D6B8BE
:1012B000002848BF704700F01F01012202FA01F127
:1012C0001C2202EAD0004EF20012CEF2000281503F
:1012D0007047000010B54EF60C5CCEF2000CDCF846
:1012E0000030C3F3022E8EF00704042C28BF042420
:1012F000BEF103034FF0FF3E0EFA04F438BF0023A3
:10130000A14399400EFA03F39A43114300F00F02F0
:1013100000F160430901043A03F564436244002884
:1013200048BF02F10C03197010BD00004EF60C51BD
:10133000CEF200010A684FF6FF031A4060F30A225A
:1013400042F0806040F0FD700860704747F2140181
:10135000C4F2000151F8142CB0F5007F3CD00028F5
:1013600074D1C86E02F4C06220F48070B2F5806F50
:10137000C8662FD151F8140C012262F34A2041F8BB
:10138000140C40F20C00C2F20000006832225043FC
:101390004DF68362C4F21B32A0FB0202900C00BF28
:1013A0000A68520511D5421C0FD00A6852050CD5A7
:1013B00058B10A68520508D5012806D00A685205B6
:1013C00003D50228A0F10400EAD10868400544BF13
:1013D0000320704700207047C86E02F4C06240F4DA
:1013E0008070B2F5806FC866F4D151F8140C0122F8
:1013F00062F34A2041F8140C40F20C00C2F20000E3
:101400000068322250434DF68362C4F21B32A0FBC7
:101410000202900C0A68520511D5421C0FD00A68CE
:1014200052050CD558B10A68520508D5012806D0D6
:101430000A68520503D50228A0F10400EAD1086821
:10144000400544BF03207047C4E700BF022060F39B
:101450004A2241F8142C00207047000047F208008F
:10146000C4F20000016841F480410160704700004F
:101470002DE9F04182B00446807841F288060007E9
:10148000C4F2020602D400202FE000BF56F8300C50
:101490005FEAC0080BD456F8300C40F0805046F894
:1014A000300C56F8300C00F080500190019847F253
:1014B0000007C4F20007386840F480703860FFF716
:1014C00033FB05463868C00500F10C81FFF72CFBA3
:1014D000401B0228F6D90320B8F1000F05D456F8B6
:1014E000301C21F0805146F8301C2168CA0717D102
:1014F0008A071DD44A0723D40A0729D4CA062FD441
:101500008A0635D44A063BD40A0641D4CA0547D4D4
:101510008A034DD48A0553D44A0559D467E000BFE5
:101520003268636822F003021A4332608A07E1D509
:101530003268A36822F00C021A4332604A07DBD5F6
:101540003268E36822F030021A4332600A07D5D5C8
:101550003268236922F0C0021A433260CA06CFD52E
:101560003268636922F440721A4332608A06C9D530
:101570003268A36922F440621A4332604A06C3D536
:101580003268E36922F440521A4332600A06BDD53C
:101590003268236A22F440421A433260CA05B7D542
:1015A0003268636A22F440321A4332608A03B1D54A
:1015B0007269A36A22F003021A4372618A05ABD5ED
:1015C0003268E36A22F440221A4332604A050ED59B
:1015D0003268236B22F440121A43B3F5801F326045
:1015E00005D156F87C2C42F4801246F87C2C0A0572
:1015F0000ED53268636B22F440021A43B3F5800FB4
:10160000326005D156F87C2C42F4801246F87C2CCE
:10161000CA040ED53268A36B22F040721A43B3F1AC
:10162000807F326005D156F87C2C42F4801246F857
:101630007C2C8A040ED53268E36B22F040621A4398
:10164000B3F1006F326005D156F87C2C42F4801261
:1016500046F87C2C4A040ED53268236C22F0406296
:101660001A43B3F1006F326005D156F87C2C42F476
:10167000801246F87C2C0A040ED53268636C22F086
:1016800040521A43B3F1805F326005D156F87C2C8A
:1016900042F4803246F87C2CCA030ED53268A36C23
:1016A00022F040421A43B3F1804F326005D156F820
:1016B0007C2C42F4803246F87C2C49030ED57169AB
:1016C000E26C21F440111143B2F5001F716105D1A4
:1016D00056F87C1C41F4801146F87C1C02B0BDE831
:1016E000F08100BFB06810F4407010D0216D8842C6
:1016F0000BD0B068B16820F4407041F48031B16023
:10170000B16821F48031B160B060C0070CD1B0681D
:10171000216D20F440700843B0600020B8F1000F44
:101720003FF5E3AEDBE600BFFFF7FEF9054641F209
:10173000883700BFB0688007E9D4FFF7F5F9401B90
:10174000B842F7D9C7E600002DE9F047002863D07A
:1017500042F2000AC4F2020A0446DAF800000D461A
:1017600000F00F0088420CD2DAF8000020F00F00E1
:101770002843CAF80000DAF8000000F00F00A84281
:101780004AD1216841F20808C807C4F2020803D10F
:10179000880740F1D080B5E0606858F8082C02282E
:1017A00038D003283CD1920136D5D8F80420D8F897
:1017B000043042F20046C3F3031302F00302D8F8E8
:1017C00004700133C0F2F406032A04BF43F200663A
:1017D000C0F26E16B6FBF3F2D8F80430C7F3062752
:1017E0007A43C3F34163022707EB4303B2FBF3F2EF
:1017F0004BF20043C0F2C4439A4259D9D8F80020B2
:1018000012F0F00F49D0890752D5A16800294FD1B5
:1018100043E000BF910305D40120BDE8F08700BF7D
:101820005105F9D5D8F8001001F00C0104293FD07A
:10183000D8F8001001F00C01082939D0D8F80010B0
:1018400001F00C010C2933D1D8F80410D8F8042089
:1018500042F20047C2F3031201F00301D8F804304A
:101860000132C0F2F407032904BF43F20067C0F25B
:101870006E17B7FBF2F1D8F80420C3F306235943DF
:10188000C2F34162022303EB4202B1FBF2F14BF2DD
:101890000042C0F2C44291420AD9D8F8001008228E
:1018A00062F307114FF00109C8F8001002E000BF11
:1018B0004FF00009D8F8001021F003010843C8F8E0
:1018C0000000FFF731F9064641F28837D8F80000EA
:1018D000616800F00C00B0EB810F07D0FFF724F92E
:1018E000801BB842F2D90320BDE8F0872168880741
:1018F00008D4B9F1000F1ED0D8F8000020F0F00095
:1019000017E000BF480705D5D8F8000040F4E060B4
:10191000C8F80000080706D5D8F80000072262F3CF
:101920000D20C8F80000D8F80000A26820F0F000F0
:101930001043C8F80000DAF8000000F00F00A842D9
:101940001BD9DAF8000020F00F002843CAF8000085
:10195000FFF7EAF8064641F2883700BFDAF80000E0
:1019600000F00F00A84207D0FFF7DEF8801BB84256
:10197000F4D90320BDE8F0872168480707D5D8F8D7
:101980000000E26820F4E0601043C8F80000080797
:1019900008D5D8F80000216920F4605040EAC10061
:1019A000C8F80000D8F8000042F20041C0F2F4018B
:1019B00000F00C00042808462DD0D8F8000000F0F4
:1019C0000C00082843F20060C0F26E1023D0D8F853
:1019D000002002F00C020C2A1CD1D8F80420D8F800
:1019E000043002F00302C3F30313D8F80470013388
:1019F000032A08BF0146B1FBF3F0D8F80410C7F37F
:101A00000627C1F341610222784302EB4101B0FB9A
:101A1000F1F000E00020D8F8001044F66C52C1F359
:101A20000311C0F60002515C40F20C0201F01F01EC
:101A300020FA01F140F20400C2F200000068C2F294
:101A400000021160BDE8F047FFF7F0BB40F20C0068
:101A500041F20801C2F20000C4F202010068096804
:101A600044F67C52C1F30221C0F60002515C01F041
:101A70001F01C8407047000040F20C0041F208010D
:101A8000C2F20000C4F202010068096844F67C5208
:101A9000C1F3C221C0F60002515C01F01F01C84031
:101AA0007047000041F20C01C4F2020151F8040C2D
:101AB00042F20042C0F2F40200F00C00042810468A
:101AC00008BF704751F8040C00F00C00082843F2DE
:101AD0000060C0F26E1025D051F8043C03F00C03F6
:101AE0000C2B1CBF0020704780B5D1F800C00B68DC
:101AF0000CF0030CC3F3031E0B680EF1010EBCF1D6
:101B0000030F08BF02460968B2FBFEF0C3F30623C9
:101B1000C1F341610222584302EB4101B0FBF1F0F5
:101B2000BDE8804070470000002804BF01207047D6
:101B30002DE9F04182B00446007841F20006C0076A
:101B4000C4F202061ED1207880073DD42078000719
:101B500064D42078400700F187802078800600F167
:101B6000D980E569002D00F04282B06800F00C00D9
:101B70000C2840F03181012D40F08E81012002B00F
:101B8000BDE8F081B06800F00C01F068082961D070
:101B9000032281F00C0122EA00000844B0FA80F030
:101BA000400957D161683068B1F5803F07D0B1F581
:101BB000A02F40F0E38040F480203060306840F493
:101BC00080303060E4E000BFB068F16800F00C00E5
:101BD000042871D001F0030180F00C0081F00201B3
:101BE0000844B0FA80F0400966D1E1683068002905
:101BF00000F0E08040F480703060FEF795FF05460D
:101C00003068400500F10A81FEF78EFF401B022874
:101C1000F6D9032002B0BDE8F08100BF6169D6F8B3
:101C20009400002900F0948040F00100C6F8940070
:101C3000FEF77AFF054600BFD6F8940080073FF50F
:101C400088AFFEF771FF401B0228F5D9032002B0D0
:101C5000BDE8F081306880037FF575AF60680028CB
:101C60007FF471AF3EE000BFB06D5FEAC00808D4FA
:101C7000B06D40F08050B065B06D00F080500190C4
:101C8000019847F20007C4F200073868C0052DD458
:101C9000386840F480703860FEF746FF054600BFA4
:101CA0003868C00522D4FEF73FFF401B0228F7D951
:101CB000032002B0BDE8F0813068400501D5E0683E
:101CC00080B17068216920F0FE4040EA01607060D8
:101CD00040F20400C2F200000068FFF7A7FA0028F3
:101CE0003FF434AF012002B0BDE8F081A168D6F81E
:101CF0009000012908D0052940F0AE8040F0040092
:101D0000C6F89000D6F8900040F00100C6F89000A8
:101D1000AEE000BFA169D6F89800002900F08680E7
:101D200040F00100C6F89800FEF7FEFE054600BF31
:101D3000D6F8980080073FF514AFFEF7F5FE401B7C
:101D400002284FF00300F3D902B0BDE8F08100BFD4
:101D500020F00100C6F89400FEF7E6FE054600BF3D
:101D6000D6F8940080077FF5F4AEFEF7DDFE401B49
:101D70000228F5D9032002B0BDE8F08120F48030BC
:101D800030603068002920F48020306000F0BE8090
:101D9000FEF7CAFE054600BF306880033FF5D3AEAC
:101DA000FEF7C2FE401B6428F6D9032002B0BDE84E
:101DB000F08100BF20F480703060FEF7B5FE05466C
:101DC000306840057FF5C2AEFEF7AEFE401B02282C
:101DD0004FF00300F4D9B7E7306820F0807030602E
:101DE000FEF7A2FE022D05460CD100BF306880012F
:101DF00040F1B880FEF798FE401B02284FF0030028
:101E0000F4D9A1E73068800140F1EA80FEF78CFE4A
:101E1000401B02284FF00300F4D995E77068216950
:101E200020F0FE4040EA016070608FE620F0010083
:101E3000C6F89800FEF778FE054600BFD6F8980071
:101E400080077FF58EAEFEF76FFE401B02284FF035
:101E50000300F3D978E700BF20F00100C6F8900036
:101E6000D6F89000002920F00400C6F890005DD05C
:101E7000FEF75AFE054641F2883700BFD6F89000BB
:101E8000800765D4FEF750FE401BB842F6D9032008
:101E900002B0BDE8F08100BFF068216A00F00302E3
:101EA0008A427FF41FAF626A6FF00F0300F0F00107
:101EB00003EB021291427FF415AFA16A00F4FE42D7
:101EC000B2EB012F7FF40EAFE16A00F07842B2EB83
:101ED000C16F7FF407AF226B0023CFF6E07303EAF4
:101EE000025200F4C001A2F5001291427FF4FAAE52
:101EF000616B4FF07E4202EA016100F0C06001F1C7
:101F00007E4188427FF4EEAE71E000BFFEF70CFE2A
:101F1000054600BF306880037FF515AEFEF704FE6E
:101F2000401B64284FF00300F4D90DE7FEF7FCFDD9
:101F3000054641F2883700BFD6F89000800707D5E4
:101F4000FEF7F2FD401BB8424FF00300F4D9FBE668
:101F5000B8F1000F3FF501AEB06D20F08050B065D4
:101F6000FBE500BFF06848F20C01C0F29F1104F1DC
:101F7000200700EA010C8ECF6FF00F00D4E90C545B
:101F800000EB02100022CFF6E07241EA0C0102EAF7
:101F900005520843A2F500124FF07E4540EA0320A7
:101FA00005EA0465104305F17E4540EAC760284311
:101FB000F060306840F080703060F06840F0807011
:101FC000F060FEF7B1FD0446306880010FD4FEF7E3
:101FD000ABFD001B02284FF00300F5D9B4E600BFAB
:101FE000F0684FF6FC71CFF6EE610840F06000201B
:101FF00002B0BDE8F0810000411E0020B0EB116F7F
:102000001CBF012070474EF21002CEF20002516058
:102010004EF62351CEF20001F0230B7007219060A1
:102020001160704790F88410012904BF02207047A6
:102030002421C0F8881001680A680B6822F0005259
:1020400023F001030B60002343660A602021C0F8DF
:10205000881080F8843000207047000090F88420B9
:10206000012A04BF02207047B0B52422C0F888209E
:102070000268D0F864E0D2F800C01368BEF1000F27
:1020800023F001031360936823F0606341EA0301C6
:10209000916019D09368916844F6AC5E490FC0F620
:1020A000000E44F6B4551EF80140C0F60005695C08
:1020B000C3F34263E400B4FBF1F11EF80340EB5CB0
:1020C000E500B5FBF3F301E001210123A0F86A105C
:1020D0002021A0F86830C2F800C0C0F888100021A4
:1020E00080F884100020B0BD90F88420012A04BF3D
:1020F00002207047B0B52422C0F888200268D0F8CA
:1021000064E0D2F800C01368BEF1000F23F00103B1
:102110001360936823F0604341EA0301916019D092
:102120009368916844F6AC5E490FC0F6000E44F621
:10213000B4551EF80140C0F60005695CC3F3426364
:10214000E400B4FBF1F11EF80340EB5CE500B5FBE5
:10215000F3F301E001210123A0F86A102021A0F887
:102160006830C2F800C0C0F88810002180F88410E0
:102170000020B0BD10B5D0B10446D0F8880028B911
:10218000002084F88400204600F026F82420C4F8BB
:1021900088002068A16A026822F00102026011B181
:1021A000204600F003FC204600F02AFD10B101207B
:1021B00010BD00BF2168486820F4904048608868DE
:1021C00020F02A008860086840F0010220460A607A
:1021D000BDE8104000F05EBC10B59CB00446002085
:1021E0001B90CDE91900CDE9170002A80430502159
:1021F000FEF746F8206848F20001C4F20001884268
:1022000002D01CB010BD00BF2020029002A8FFF732
:102210002FF9002818BFFEF77FFB41F24C00C4F2F3
:102220000200016941F001010161016901F0010150
:1022300001910199016841F00101016000680221EA
:1022400000F0010001900198189101210C201991D2
:1022500000211790CDE91A1017A94FF09040FEF712
:1022600083FB1CB010BD00002DE9F04381B0044693
:10227000D0F88800202809D100294FF0010018BFAC
:10228000002A07D101B0BDE8F08300BF022001B0F1
:10229000BDE8F0830020C4F8900021201D460E46C2
:1022A000C4F888001746FEF73FFCA4F85470A4F861
:1022B0005670A1688146B1F5805F02D1206900287F
:1022C00066D037460020B4F856202168002A67D02F
:1022D0006A1C28D0002D53D0804600BFC869000674
:1022E0000AD4FEF721FCA0EB0900A84200F284808A
:1022F00021680868F2E700BF17B117F8010B04E086
:1023000038F8020B00276FF35F208862B4F856009C
:102310000138A4F85600B4F856000028DED13FE09A
:10232000CA69120609D4CA69120606D4CA69120615
:102330005CBFCA695FEA0262F2D51FB117F8012BD0
:1023400005E000BF30F8022B00276FF35F228A629E
:10235000B4F85620013AA4F85620B4F85620002AC2
:10236000E1D11DE030F8022B00276FF35F228A6273
:10237000B4F85620013AA4F85620B4F856207AB1A1
:10238000CA69120636D5002FECD017F8012BEEE7FC
:1023900000273046B4F856202168002A7FF498AF11
:1023A000C86940061ED42DB3681C14D1C869400604
:1023B0002AD4C869400627D4C869400624D4C8690D
:1023C00040064FF00000F1D50DE000BF2068016825
:1023D000C069400618D4FEF7A7FBA0EB0900A8428D
:1023E000F4D909E000202021C4F8881001B0BDE82C
:1023F000F08300BFFEF798FB03202021C4F888106B
:1024000001B0BDE8F08300BF00202021C4F888108F
:1024100001B0BDE8F0830000FEE7000070B504469F
:10242000006815468369DA0602D40021002266E0BE
:102430000E461021C161816989065CD4711C50D09F
:102440002EBBFEF771FB2068426894F84210836946
:102450001B040BD512F4804208D1202906D0416814
:1024600041F480414160FEF75FFB054620688169C9
:10247000890605D4FEF758FB401B1A28F6D328E03E
:1024800081698906DDD536E08169890633D4FEF796
:102490004BFB411B2068B142F6D9426894F84210C8
:1024A00083691B040CD512F4804209D1202907D07E
:1024B000416841F480414160FEF736FB054600BFAC
:1024C000206881698906DFD4FEF72EFB401B1A289D
:1024D000F6D3206801228169242110E081698906F0
:1024E00009D48169890606D4816989065CBF81693E
:1024F0005FEA8161F2D52021C16101220421836953
:10250000DE0505D54FF4807241F00101C261012260
:102510005E0505D49B050AD472B9002070BD00BFCA
:1025200041F008014FF480629B05C26104D541F07F
:1025300002014FF40072C2618269920744BF002217
:1025400082628269D20703D1826942F0010282610C
:1025500042684EF60003CFF600631A404260606C9A
:1025600008436064202084F84100002084F8420081
:1025700084F84000012070BD2DE9F0410446006858
:1025800080690840401AB0FA80F04009904221D199
:10259000DDF8188015460E461F46581C27D0CFBBC5
:1025A000204600214246FFF739FF002853D1FEF7AD
:1025B000BBFA206881693140891BB1FA81F1490970
:1025C000A9423CD080693040801BB0FA80F04009BD
:1025D000A842E5D00020BDE8F08100BF20688069F6
:1025E0003040801BB0FA80F04009A842F2D120466A
:1025F0004FF0FF314246FFF711FF0028EED00120D7
:10260000BDE8F08180693040801BB0FA80F040095D
:10261000A842DFD1204639464246FFF7FFFED0B937
:10262000FEF782FAA0EB08012068B942EAD9816975
:102630003140891BB1FA81F14909A942E2D1606CAC
:1026400040F020006064202084F84100002084F8DD
:10265000420084F840000120BDE8F08170B50446D6
:1026600000688069800635D415460E4619B928E001
:10267000806980062ED4204631462A46FFF7CEFEDA
:1026800030BBFEF751FA411B2068B142F0D9816995
:102690008906EDD4606C40F020006064202084F84E
:1026A0004100002084F8420084F84000012070BD01
:1026B000FEF73AFA206881698906EBD580698006C1
:1026C00008D4204600212A46FFF7A8FE0028EFD0B4
:1026D000012070BD002070BD70B50446006880699F
:1026E000800714D415460E46481C17D01EBB00BFE9
:1026F000204600212A46FFF791FEB8BBFEF714FAE8
:1027000020688169890725D580698007F0D5002078
:1027100070BD00BF206880698007F8D420464FF064
:10272000FF312A46FFF77AFE0028F3D0012070BD62
:1027300080698007EBD4204631462A46FFF76EFEBB
:10274000A0B9FEF7F1F9411B2068B142F0D98169C7
:102750008907EDD4606C40F020006064202084F88C
:102760004100002084F8420084F84000012070BD40
:1027700070B586B0002541F24C000595CDE90355B2
:10278000CDE90155C4F202000168002241F00401C4
:1027900001600168202601F00401009100990168A0
:1027A00041F020010160016801F0200100910099D1
:1027B000016841F001010160016801F0010100912F
:1027C0000099016841F0020101600068202100F0D9
:1027D0000200009000984FF09040FEF79FF94FF4F0
:1027E000005001904FF48810CDE9020540F600003A
:1027F00001ACC4F600002146FEF7B6F80120CDE991
:1028000002054FF09040214601960495FEF7ACF882
:10281000282000210022FEF75DFD2820FEF748FD5C
:1028200006B070BD80B540F2100045F60001C2F25E
:102830000000C4F2000148F2C2520023C4F2B20206
:102840004FF0010C80E80E10C0E90433C0E90633F4
:102850000362FEF7B9F9002818BFFEF75DF840F2F1
:102860001000C2F200000021FEF764F9002818BF32
:10287000FEF752F840F21000C2F200000021FEF70D
:102880007FF9002808BF80BDBDE88040FEF744B84E
:1028900080B540F2640047F60001C2F20000C4F2C5
:1028A000000148F2C2520023C4F2B2024FF0010C00
:1028B00080E80E10C0E90433C0E906330362FEF776
:1028C00083F9002818BFFEF727F840F26400C2F22F
:1028D00000000021FEF72EF9002818BFFEF71CF8B3
:1028E00040F26400C2F200000021FEF749F900281E
:1028F00008BF80BDBDE88040FEF70EB880B540F24D
:10290000B80048F20001C2F20000C4F200014FF426
:10291000E132002380E80E0000F10C014FF4C06C9E
:102920004FF00C0E81E808508361C0E908338362E0
:10293000FFF720FC002818BFFDF7EEFF40F2B800BB
:10294000C2F200000021FFF7CFFB002818BFFDF7FF
:10295000E3FF40F2B800C2F200000021FFF77EFB67
:10296000002818BFFDF7D8FF40F2B800C2F20000FF
:10297000FFF758FB002808BF80BDBDE88040FDF789
:10298000CBBF0000FEE70000FEE70000704700003C
:1029900070470000FEF72CBC4EF68850CEF20000C7
:1029A000016841F47001016070470000816A0A0704
:1029B0000CD4CA0715D18A071ED44A0727D4CA06E1
:1029C00030D48A0639D44A0642D457E00268D0F897
:1029D00038C0536823F4004343EA0C035360CA072A
:1029E000E9D00268D0F82CC0536823F4003343EADE
:1029F0000C0353608A07E0D50268D0F830C05368F2
:102A000023F4803343EA0C0353604A07D7D50268A6
:102A1000D0F834C0536823F4802343EA0C03536096
:102A2000CA06CED50268D0F83CC0936823F4805320
:102A300043EA0C0393608A06C5D50268D0F840C00B
:102A4000936823F4005343EA0C0393604A0615D5B8
:102A5000D0F800C0436CDCF80420B3F5801F22F4EA
:102A6000801242EA0302CCF8042007D1DCF80420EB
:102A7000836C22F4C0021A43CCF80420090658BF24
:102A800070470168C06C4A6822F400221043486015
:102A900070470000B0B582B004460020C4F8900032
:102AA000FEF742F8216805460A68120737D56FF02D
:102AB0007E4C20464FF4001100222B46CDF800C07A
:102AC00000F0F8F950B300BF206850E8000F21680B
:102AD00020F0800041E80002DAB1206850E8000FE1
:102AE000216820F0800041E8000292B1206850E89F
:102AF000000F216820F0800041E800024AB1206800
:102B000050E8000F216820F0800041E80002002A10
:102B1000DAD10320202188226BE000BF21680868F9
:102B200040075DD56FF07E4C20464FF480010022B7
:102B30002B46CDF800C000F0BDF9002850D000BFF2
:102B4000206850E8000F216820F4907041E80002EE
:102B5000BAB3206850E8000F216820F4907041E873
:102B6000000272B3206850E8000F216820F49070D2
:102B700041E800022AB3206850E8000F216820F4E1
:102B8000907041E80002002ADAD11AE0206850E88B
:102B9000020F216820F0010041E80202DAB120684A
:102BA00050E8020F216820F0010041E8020292B1D2
:102BB000206850E8020F216820F0010041E802027D
:102BC0004AB1206850E8020F216820F0010041E876
:102BD0000202002ADAD1032020218C2209E000BF62
:102BE0002020C4F88800C4F88C0000217022002046
:102BF000E166A150002184F8841002B0B0BD00004D
:102C000070B5054605F108041ECC0068194341EA79
:102C10000403EE69046846F6F311CCF6FF71214017
:102C2000194331430160416848F2000C21F44051DE
:102C300011434160AA69C4F2000C60451CBF296AB7
:102C40000A4381684FF2FF43C1F2FF131940114359
:102C50008160C16AD5F824E021F00F0141EA0E013C
:102C6000C16244F6FF71C4F2000188424FF01003C4
:102C700018DC44F20041C4F20001884228D044F636
:102C80000001C4F20001884232D044F60041C4F28F
:102C90000001884242D141F28801C4F20201096870
:102CA0008B0933E045F20001C4F20001884217D0DD
:102CB000604525D043F60001C4F2010188422DD1C0
:102CC00041F28801C4F202010B6876A222E000BF43
:102CD00041F28801C4F2020109688B0816E000BFC6
:102CE00041F28801C4F2020109680B0A0EE000BF3C
:102CF00041F28801C4F2020109680B0906E000BF35
:102D000041F28801C4F2020109688B0A44F69C5220
:102D1000C0F6000203F0030152F82130604542F290
:102D20000040C0F2F40015D0B6F5004F22D1082BB8
:102D30004FF0010100F2AD80DFE803F0065C74ABF8
:102D400064ABABAB720000BFFEF780FE002840F022
:102D50005D809AE0082B4FF0010100F29A80DFE8D5
:102D600003F0059825981B9898982300FEF76EFEAF
:102D7000B0B98AE0082B4FF0010100F28A80DFE849
:102D800003F0053D6F88498888886D00FEF75EFE78
:102D9000002842D179E000BFFEF784FE002874D0FD
:102DA000D5F824E002E000BF4FF4004044F684511F
:102DB000C0F6000131F81E106A68B0FBF1F002EBBA
:102DC000420188424FF0010163D31303984260D857
:102DD000010E000210EB520041F100010023FDF74B
:102DE00017FA4FF60052A0F54071C0F20F0291425F
:102DF00049D34DE0FEF740FE40B946E0FEF73CFE09
:102E000058B942E0FEF74EFE00283ED0D5F824E047
:102E100008E000BFFEF746FEB8B3D5F824E01FE097
:102E20004FF4004044F68451C0F6000131F81E1002
:102E30006A68B0FBF1F0510801EB4000B0FBF2F022
:102E40004FF6EF72A0F11001914221D84FF6F071C8
:102E50000140C0F34200084415E000BF4FF40040B9
:102E600044F68451C0F6000131F81E104FF6EF729F
:102E7000B0FBF1F0696800EB5100B0FBF1F0A0F19C
:102E80001001914204D82968C860002101E000BF08
:102E900001214FF00110A866002208466A67AA6760
:102EA00070BD00BF0100000004000000020000002F
:102EB000080000002DE9F041804600681546C2690F
:102EC0000E461140891BB1FA81F14909A94223D16B
:102ED000069C2CB3611C29D1C1693140891BB1FA10
:102EE00081F14909A94217D1C1693140891BB1FA61
:102EF00081F14909A9420FD1C1693140891BB1FA59
:102F000081F14909A94207D1C1693140891BB1FA50
:102F100081F14909A942DFD00020BDE8F08100BF5E
:102F2000FDF702FE0320BDE8F08100BF1F4607E069
:102F3000C0693040801BB0FA80F04009A842EBD154
:102F4000FDF7F2FDC01BA04200F2AE80D8F80000F1
:102F500001684907ECD5402EEAD0802EE8D0C1693F
:102F6000090700F1A580C1690905E1D54FF40061A9
:102F70000162D8F8000050E8000FD8F8001020F4E3
:102F8000907041E800020AB3D8F8000050E8000F42
:102F9000D8F8001020F4907041E80002B2B1D8F8DF
:102FA000000050E8000FD8F8001020F4907041E8BD
:102FB00000025AB1D8F8000050E8000FD8F800100D
:102FC00020F4907041E80002002AD2D14FF6FE7042
:102FD000CEF6FF70D8F8001051E8021FD8F8002094
:102FE000014042E80213F3B1D8F8001051E8021F83
:102FF000D8F80020014042E80213A3B1D8F800102D
:1030000051E8021FD8F80020014042E8021353B1F2
:10301000D8F8001051E8021FD8F80020014042E81B
:103020000213002BD6D1D8F86C0001282CD1D8F887
:10303000000050E8000FD8F8001020F0100041E820
:1030400000020AB3D8F8000050E8000FD8F80010CA
:1030500020F0100041E80002B2B1D8F8000050E8BA
:10306000000FD8F8001020F0100041E800025AB11B
:10307000D8F8000050E8000FD8F8001020F0100039
:1030800041E80002002AD2D120200021C8F88C009B
:10309000C8F86C10C8F87410C8F89000032088F8BD
:1030A0008410BDE8F08100BF0320BDE8F08100BFBF
:1030B00008210162D8F8000050E8000FD8F800108D
:1030C00020F4907041E800020AB3D8F8000050E8FC
:1030D000000FD8F8001020F4907041E80002B2B15F
:1030E000D8F8000050E8000FD8F8001020F49070D5
:1030F00041E800025AB1D8F8000050E8000FD8F8B3
:10310000001020F4907041E80002002AD2D14FF65E
:10311000FE70CEF6FF70D8F8001051E8021FD8F804
:103120000020014042E80213F3B1D8F8001051E842
:10313000021FD8F80020014042E80213A3B1D8F8DA
:10314000001051E8021FD8F80020014042E80213A5
:1031500053B1D8F8001051E8021FD8F80020014000
:1031600042E80213002BD6D1D8F86C0001282CD1EC
:10317000D8F8000050E8000FD8F8001020F0100038
:1031800041E800020AB3D8F8000050E8000FD8F870
:10319000001020F0100041E80002B2B1D8F80000A1
:1031A00050E8000FD8F8001020F0100041E80002AD
:1031B0005AB1D8F8000050E8000FD8F8001020F0FD
:1031C000100041E80002002AD2D12020C8F88C006B
:1031D00000200821C8F86C00C8F87400C8F89010E6
:1031E00088F884000120BDE8F0810000FEE70000BF
:1031F0002DE9F04F81B02DED068B8AB00F460029E6
:103200004FF0FF0118BF002A00F0F5829A46002B0C
:1032100000F0F18200234107C2E90033C2E9023322
:10322000136153610992CDE9070700F08C8078683B
:10323000FDF752FA9FEDE60B834653EC102B0F4639
:10324000FDF7D0F80546BAF800000C46FDF744FA41
:103250009FEDE10B064653EC102B8946FDF7C2F8B3
:1032600002460B4628462146FDF715F80446BAF9F2
:103270000200BAF904800D46FDF71DFA02460B461E
:1032800020462946FDF7AEF89FEDD50B06900C467B
:1032900053EC102B58463946FDF7A4F89FEDD20B9E
:1032A00005460F4653EC102B30464946FDF79AF879
:1032B00002460B4628463946FCF7EDFF02460B4610
:1032C000FDF790F8054640460E46FDF7F4F9024634
:1032D0000B4628463146FDF785F8024606980B4610
:1032E0002146FCF7D8FF04460D46FDF702FA9FED94
:1032F000C00BCAF8240053EC102B20462946FDF7DA
:10330000E3F89FEDBD9B044653EC192B0D4641ECB1
:10331000180BFDF763F988B99FEDB9AB204653EC64
:103320001A2B2946FDF73FF9B0EE489AF0EE689A5D
:10333000002804BFB0EE4A9AF0EE6A9A099ADDE9D5
:10334000070782ED029BC10700F07D81DAF82400B7
:10335000FDF7B1F99FEDAC0B53EC102BFDF742F8E4
:103360009FEDAB0B53EC102BFCF795FFD34680463B
:10337000BBF90A00BAF908A08946FDF79CF9024694
:103380000B4640464946FDF72DF802460B4640469F
:103390004946FDF727F89FEDA00B55EC106B324620
:1033A0002B46FDF71FF8074650460C46DA46FDF758
:1033B00082F942464B46FDF715F83A462346FCF79C
:1033C0006AFF32462B46FDF70DF89FED950B56EC44
:1033D000107B3A463346FDF705F89FED930B53EC0F
:1033E000102BFCF758FF0446BBF806000D46FDF70E
:1033F00073F902460B4620462946FCF7F3FF9FED82
:103400008C0B044653EC102B0D46FDF738F90028C1
:1034100040F01281BAF90C00BBF912100595BAF907
:103420000E50BBF910A00691FDF745F9CDE901104A
:103430002846FDF740F902460B4640464946FCF750
:10344000D1FF054600914046494642464B46FCF7AF
:10345000C9FFB9460746504603940C46DA46FDF7C5
:103460002AF902460B4638462146FCF7BBFF4A467E
:103470003346B346FCF7B6FF0F460099044628468C
:103480002A460B46FCF707FF22463B46FCF703FFA4
:103490009FEDE30B53EC102BFCF7A4FF9FEDE20B29
:1034A00004460D46DDE9011053EC102BFCF79AFFA2
:1034B00022462B46FCF7EFFE089F804638680D46F3
:1034C000FDF70AF99FEDDA0B02460B4651EC100BA3
:1034D000FCF782FF9FEDD80B06460C4653EC102BF1
:1034E00040462946FCF77EFF02460B463046214601
:1034F000FCF7D1FE9FEDD20B53EC102BFCF772FFC3
:10350000039A059BFCF7E0FF8046BAF916000C46CB
:10351000FDF7D1F802460B4640462146FCF762FF14
:1035200002460B4640462146FCF75CFF9FEDC60B6A
:1035300053EC102BFCF756FF0546BAF914000E4663
:10354000FDF7B9F802460B4640462146FCF74AFF14
:103550004A465B46FCF746FF2A463346FCF79BFE8D
:10356000054606980E46FDF7A6F802460B46284685
:103570003146FCF790FE9FEDB60B53EC102BFCF799
:1035800031FF02460B4640462146FCF784FE9FED84
:10359000A09B044653EC192B0D4641EC180BFDF78C
:1035A0001DF800284BD19FEDACAB204653EC1A2BF5
:1035B0002946FCF7F8FFB0EE489AF0EE689A00282A
:1035C00004BFB0EE4A9AF0EE6A9A38E000BF00BF3E
:1035D000000000000000103F00000000000050BF8D
:1035E000000000000000E03E00000000000020BFDE
:1035F000000000000000B44000000000000044C0D3
:103600000000000000405540000000000000E03FC6
:10361000000000000040EFC0000000000000C03EBD
:10362000000000000000003F000000000000F03F2C
:1036300000000000000000009FED759B089F099AA4
:10364000079882ED009B400740F1D480DAF824000F
:10365000D7F80880FDF72FF89FED810B53EC102B66
:10366000FCF719FE0446BAF91E000F46FDF723F8D1
:103670000546BAF920000E46FDF71DF89FED7A0BBE
:1036800053EC102BFCF7AEFE02460B4620463946A3
:10369000A146BB46FCF7A6FE9FED750B07460C4600
:1036A00053EC102B28463146FCF79CFE3A46234645
:1036B000FCF7F1FD044640460D46FDF70DF82246A5
:1036C0002B46FCF7E8FD0890BAF91A000791FCF7C1
:1036D000F2FF9FED690B53EC102BFCF783FE069075
:1036E0009AF81C000591FCF7F7FF9FED650B57EC6E
:1036F000108B42463B46FCF775FE4A465B464C46FD
:103700005D46FCF76FFE9FED400B5646CDF810A0CE
:103710005AEC102B53460392FCF7BDFD814696F9F7
:1037200022008B46FCF7C7FF42463B46FCF75AFE99
:1037300002460B4620462946FCF754FE4A465B46A5
:10374000FCF750FEDDF80C8053464246FCF7A3FD23
:1037500007460C46DDE90510DDE90732FCF742FEBD
:1037600006460D46484659463A462346FCF73AFE79
:1037700002460B4630462946FCF734FE05460498BF
:103780000F46007EFCF7A8FF02460B462846394646
:10379000FCF728FE9FED3C0B53EC102BFCF722FEB0
:1037A00042465346FCF777FD02460B46284639460B
:1037B000FCF718FE9FED369B044653EC192B0D4683
:1037C00041EC180BFCF740FF88B99FED13AB204686
:1037D00053EC1A2B2946FCF71CFFB0EE489AF0EE8A
:1037E000689A002804BFB0EE4A9AF0EE6A9A0998E7
:1037F00080ED049B002148B20AB0BDEC068B01B0FD
:10380000BDE8F08F00BF00BF000000000000F03FE7
:1038100000000000004CDD4000000000000000003F
:10382000000000000000D0BF000000000000F0C059
:103830000000000000003041000000000000303FA8
:1038400000000000006AB840000000000000003ED8
:10385000000000000000B03F0000000000DBFA4064
:103860000000000000C0F2C000000000000010BF17
:1038700000000000000050C0000000000000F03E0A
:10388000000000000000503E000000000000C0BE2C
:1038900000000000000059402DE9F04790B00546B7
:1038A0006946E82001222B4600F0C4F810B110B0A0
:1038B000BDE8F087E9469DF80080882049461A2235
:1038C0002B4600F0B7F80028F1D109F11A01E120E8
:1038D00007222B4600F0AEF80028E8D1FF254FF074
:1038E000000C4FF03C0E002219F80230C5F3C0174F
:1038F000C5F38016C3F380100EEA8501B7EBD31F22
:1039000018BF81F03A0186420846C5F34016C5F358
:103910000015C3F3001418BF80F01D00C3F3401757
:103920002C1B18BF7424BE42C0F30016C3F38007DB
:1039300000F00F0018BF84F0E804C3F3C005F61BC5
:1039400084EA001018BF1D26B5EB511FC3F34001D8
:10395000C0F3801403F0010318BF86F03A0686EA2C
:103960000007E31A18BF1D2307F03F04B1EBD01F77
:1039700018BF83F03A0383EA8406202A09F802C0BC
:103980004ED009EB020A9AF80150C7F34010C7F372
:103990000011C5F380140EEA8607B0EBD51F18BFDF
:1039A00087F03A07A1423846C6F34011C6F3001625
:1039B000C5F3001318BF80F01D00C5F34014F31ABF
:1039C00018BF7423A142C0F30014C5F3800618BFCA
:1039D00083F0E803A41B00F00F00C5F3C00118BF7B
:1039E0001D2483EA0010B1EB571F18BF84F03A047E
:1039F00084EA00018900C5F3400305F00106CDB259
:103A0000C0F38014B3EBD01F18BF85F03A05B44261
:103A100018BF85F01D058AF801C0023264E700BFB7
:103A2000F0B280EA0800FF3818BF0120400010B053
:103A3000BDE8F08713B310B5D3F804E0BEF1000F72
:103A400016D094460A460146986888B1D86878B17D
:103A50009C7858786346012C18BF41F08001F047EC
:103A6000002818BF6FF00300BDE8104040B2704757
:103A7000FF20BDE8104040B2704700BFFF2040B2B9
:103A800070470000F0B587B005460020059004900F
:103A9000A2B1546894B1906880B14FF0FF0051B169
:103AA000D36843B150780F46164604AAF72108237D
:103AB000A04738B1FC2040B207B0F0BDFF2040B2B3
:103AC00007B0F0BD9DF811109DF810009DF8122070
:103AD000090141EA00309DF814109DF8133040EAC6
:103AE0001210019008019DF8151040EA033040EAD9
:103AF0001110BDF81610029048BA039006F1100399
:103B000001A928463A46FFF773FB40B207B0F0BD63
:103B1000B0B588B004460020002C8DF8030000F0FA
:103B2000DB806568002D00F0D780A068002800F0D9
:103B3000D380E068002800F0CF8060780DF10302A8
:103B4000D0210123A84738BB9DF80300602823D16A
:103B5000606860210028217000F0BE80A568002DFB
:103B600000F0BA80E068002800F0B680B620A278A5
:103B70008DF804006078012A01AA4FF0010308BF04
:103B8000E021A847E168054602208847002D5BD068
:103B9000FC2040B208B0B0BDE168012088476568EC
:103BA00075B1A06860B1E06850B160780DF10302B2
:103BB000D0210123A84718B99DF803006028C7D079
:103BC000E16801208847656875B1A06860B1E06868
:103BD00050B160780DF10302D0210123A84718B934
:103BE0009DF803006028B3D0E1680120884765682C
:103BF00075B1A06860B1E06850B160780DF1030262
:103C0000D0210123A84718B99DF8030060289FD050
:103C1000E1680120884765687DB1A06868B1E06807
:103C200058B160780DF10302D0210123A84720B9D3
:103C30009DF8030060283FF48BAFE16801208847BE
:103C4000FE2040B208B0B0BD65680020ADF81C0091
:103C5000CDE90500CDE9030002900190E5B3A0682D
:103C6000D0B3E068C0B3607801AA88211A23A847BE
:103C700020B1FC2040B208B0B0BD00BFBDF80400C8
:103C800065682082DDF80600DDF80A10C4F812002D
:103C9000BDF81A00DDF80E20E0849DF81D00DDF867
:103CA000123084F82800DDF81600C4F81610C4F8A5
:103CB0001A20C4F81E30C4F822006DB1A06858B1B3
:103CC000E06848B1607801AAE1210723A84738B12C
:103CD000FC2040B208B0B0BDFF2040B208B0B0BD7B
:103CE000BDF804009DF8081060859DF8060001F0FD
:103CF0000F0384F82C009DF907009DF80A2043EA81
:103D000000109DF90930E085180140EA1110208665
:103D100084F83220002040B208B0B0BD51B370B575
:103D200086B04D68002D5FD08A68002A5CD0CA68D2
:103D3000002A59D0064648780C460DF10202F421BB
:103D40000123A8479DF802200146002818BF6FF004
:103D5000030002F003028DF8022019B912B12046C7
:103D600000F096F9010609D006B0BDE8704040B2F7
:103D7000704700BFFF2040B2704700BF6568214612
:103D800095B3886880B3C86870B348780DF10302B2
:103D9000F4210123A84728B1FC2006B0BDE87040FB
:103DA00040B270479DF80300616866F301008DF82A
:103DB0000300C9B1A568BDB1E168A9B1A2788DF8C9
:103DC000040060787421012A01AA4FF0010308BFA2
:103DD000F421A847002818BF6FF0030006B0BDE823
:103DE000704040B2704700BFFF2006B0BDE8704091
:103DF00040B2704761B370B586B04D68002D00F0D9
:103E000095808A68002A00F09180CA68002A00F034
:103E10008D80064648780C460DF10202F4210123FC
:103E2000A8479DF802200146002818BF6FF0030044
:103E300002F003028DF8022019B912B1204600F0F9
:103E400027F9010608D006B0BDE8704040B27047BF
:103E5000FF2040B2704700BF21463246700708D0AD
:103E600038313046224600F0B7F921463246002864
:103E7000E9D112F0180F15D04D68002D56D0886882
:103E8000002853D0C868002850D048780DF10302AC
:103E9000F5210123A84758B1FC2006B0BDE87040C9
:103EA00040B27047002006B0BDE8704040B2704795
:103EB000300705D4F00611D46068D8B936E000BFE9
:103EC0009DF8030094F83B1000F0E30001F00701B7
:103ED00040EA81008DF80300F006EDD59DF803005F
:103EE00094F83C1000F01F0040EA41108DF80300E8
:103EF0006068D8B1A568CDB1E068B8B19DF803009D
:103F0000A2788DF8040060787521012A01AA4FF08B
:103F1000010308BFF521A847002818BF6FF0030070
:103F200006B0BDE8704040B2704700BFFF2006B049
:103F3000BDE8704040B2704780B582B0019040F259
:103F4000B800C2F2000001A901224FF6FF73FEF78C
:103F50008BF9019802B080BD96B0FDF757F90024A7
:103F60000020CDE90644CDE90444CDE90244FDF743
:103F7000EDF94FF480710491402105910421022054
:103F80000A9155210190CDE90800CDE90B10CDE94A
:103F90000D0001A8FDF7C8FD20B1EFF3108072B647
:103FA000FEE700BF0F2011900320CDE9120411A8F5
:103FB0000421CDE91444FDF7C7FB28B1EFF31080CD
:103FC00072B600BFFEE700BFFEF7D2FBFEF72AFC89
:103FD000FEF75EFCFEF792FC4FF4BB70ADF80500F7
:103FE00044F2ED30C0F60000029044F22140C0F6E9
:103FF0000000039044F2E930C0F6000001AC0490E8
:104000002046FFF785FD014613A000F023FA204665
:10401000FFF742FC10B916A000F096FE1AA401ADFD
:104020004FF0904020210122FCF778FD4FF47A7088
:10403000FCF778FC4FF0904020210022FCF76EFD49
:104040004FF47A70FCF76EFC204600F003FA284625
:1040500000F082F9E4E700BF54686520696E697476
:1040600020726573756C742069733A25640D0A00BB
:10407000424D453238302073656C66207465737428
:1040800020706173730D000068656C6C6F00000038
:10409000E0B12DE9F04188B04768002F00F096802C
:1040A0008168002900F09280C168002900F08E80AC
:1040B000044640780DF10702F2210423B84748B1C5
:1040C000FC2008B0BDE8F04140B27047FF2040B28C
:1040D000704700BF9DF807009DF8091000F0070029
:1040E0008DF80400C1F382008DF8020048099DF8A4
:1040F0000A608DF803006068C6F3820700284FEA63
:1041000056108DF805708DF806005FD0A56823461F
:10411000002D5BD0D868002858D0B6209A788DF84A
:104120000C0058786021012A03AA98464FF0010339
:1041300008BFE021A847D8F80C10054602208847A0
:1041400035B1FC2008B0BDE8F04140B2704700BF77
:104150000DF102011F20224600F03EF80028B0D1E8
:1041600065689DB3A168204681B3C16871B340788A
:104170000DF10B02F5210123A8470028E1D19DF89C
:104180000B00636800F0030040EA870006F0E002DD
:1041900010448DF80B00CBB1A7682146B7B1C968B0
:1041A000A1B1A2788DF80C0060787521012A03AACC
:1041B0004FF0010308BFF521B847002818BF6FF082
:1041C000030008B0BDE8F04140B27047FF2008B0DE
:1041D000BDE8F04140B270472DE9F04186B003469A
:1041E000400701D4012052E0002A4FD05068002837
:1041F0004CD09468002C49D0D068002846D08878EC
:10420000164600F007008DF80400507892781F469B
:104210000D467221012A01AA4FF0010308BFF221C5
:10422000A04728B1FC20324629463B462FE000BF7C
:104230007468324629463B4644B3906830B3D06830
:1042400020B350780DF10302F4210123A047002888
:10425000E8D17068324600287AD09468002C77D074
:10426000D068002874D09DF8030074218DF80400F4
:10427000507892780123012A01AA08BFF421A047AF
:104280003246002818BF6FF00300CDE7FF209C07DF
:1042900015D0002A56D05768002F53D090680028B8
:1042A00050D0D06800284DD050781D460E4690461C
:1042B0000DF10302F4210123B84728B1FC2040B2DC
:1042C00006B0BDE8F08100BFE807304606D1002CFB
:1042D000454611D46868D0B934E000BF9DF803109A
:1042E000027801F0E30102F0070241EA82018DF851
:1042F0000310002C4546EDD59DF80310407801F0E1
:104300001F0141EA40108DF803006868D0B1AF6822
:10431000C7B1E868B0B19DF80300AA788DF8040031
:1043200068787421012A01AA4FF0010308BFF42123
:10433000B847002818BF6FF0030040B206B0BDE8D0
:10434000F08100BFFF2040B206B0BDE8F08100BFA1
:10435000FF2069E7000000008AB0044640F2052013
:10436000C0F20140A063012084F83C001F202146D8
:10437000FFF740FD03202146FFF7D0FC44F6F9503B
:10438000C0F6000000F0E0FC9FED150B44F6BC55B4
:104390000DF1100857EC106BC0F60005E1684620DF
:1043A0008847072041462246FFF76CFB9DED040B32
:1043B0009DED068B9DED089B51EC100B32463B4664
:1043C000FCF782F841EC100B53EC182B28468DEDCE
:1043D000000B8DED029B00F03DF8DFE700BF00BF52
:1043E0000000000000005940FCF79CBA80B584B082
:1043F0009C460B464FF6FF710291410040F264006B
:104400000092C2F200001A460123CDF804C0FCF766
:1044100033FC002818BF4FF0FF3004B080BD00000F
:1044200080B584B09C460B464FF6FF710291410067
:1044300040F264000092C2F200001A460123CDF857
:1044400004C0FCF73BFD002818BF4FF0FF3004B05C
:1044500080BD00000FB4054B10B503A9044A0298B3
:1044600000F0DAF810BC5DF814FB0000393F0008DA
:104470000000002002E008C8121F08C1002AFAD17B
:1044800070477047002001E001C1121F002AFBD1D4
:10449000704700002DE9FF5F82B00021DDE90430A4
:1044A000020DDDF840B0034318D044F61050A2F2DC
:1044B000FF3242431514119801281FD0A5EB0B00C1
:1044C000401C5FEA000A4FF000064E4FDFF83891BB
:1044D000B046504615D5CAF1000413E011980124E6
:1044E0004AA3012801D16FEA0B010298119AC0E991
:1044F0000031C0E9024206B0BDE8F09FCBF10000F8
:10450000DFE704460021404A491842EB0450CDE958
:10451000001012E0E00707D032463B4640464946CD
:10452000FBF760FF8046894632463B4610461946F7
:10453000FBF758FF06460F466410002CEAD1DDE970
:104540000401DDE90023BAF1000F06DAFBF74AFFA8
:1045500042464B46FBF746FF05E0FBF7B5FF4246F8
:104560004B46FBF7B1FF04460E460022284BFCF7F2
:104570009BF903D84FF0FF30014607E00022254B9E
:1045800020463146FBF787FEFCF776F9102409E058
:10459000002C0ADB0A220023FBF73AFE039B303291
:1045A0001A55641E50EA0102F2D1641C039AC4F148
:1045B00011031444119A012A03D0012208430DD19A
:1045C0000AE0084304D000204FF0110B119072E76D
:1045D000A3EB0B056D1E0DE05B4504DD4FF0000203
:1045E00005F1010504E003DA4FF00002A5F1010531
:1045F000002AECD002981199C0E90231C0E90045C7
:1046000079E70000000014400000F03F3000000097
:104610000000F0430000E03F2DE9FF4F95B09B46BE
:104620008946064600250FE2252877D10024274633
:10463000F84A0121059400E0044316F8013F203BAD
:1046400001FA03F01042F7D130782A2811D06FF028
:104650002F033078A0F13002092A16D8059A44F0C9
:10466000020402EB820203EB42021044761C059026
:10467000EFE759F8042B0592002A03DA504244F47C
:104680000054059044F00204761C30782E2816D190
:1046900016F8010F44F004042A280DD06FF02F0201
:1046A0003078A0F13003092B09D807EB870302EB20
:1046B0004303C718761CF3E759F8047B761C30785F
:1046C0006C280FD006DC4C2817D068280DD06A283B
:1046D00014D104E0742810D07A280FD10DE044F4EE
:1046E00000140AE044F4801401E044F440147278A9
:1046F000824202D104F58014761C761C307866283C
:104700000BD013DC582877D009DC002875D0452859
:10471000F6D04628F4D047281AD19DE118E0632846
:1047200035D0642879D0652812D195E1702873D0EE
:1047300008DC6728F1D069286FD06E280DD06F286B
:1047400006D1B5E073282CD0752875D0782874D0A0
:104750005A46179990476D1C75E1C4F30250022820
:1047600009D003280DD0D9F8001004280DD00D6011
:1047700009F1040967E1D9F80010EA17C1E900520C
:10478000F6E7D9F800100D80F2E70D70F0E719F8A0
:10479000041B8DF8001000208DF80100EA4601206E
:1047A00003E059F804AB4FF0FF3061074FF0000110
:1047B00002D40DE008F101018846B9420FDA8045C4
:1047C000F8DB1AF808100029F4D108E008F101011B
:1047D00088468142FADB1AF808100029F6D10598BC
:1047E0005B46A0EB080721463846179A00F094FA7A
:1047F000284400EB080507E04DE029E10DE01AF838
:10480000010B5A4617999047B8F10108F7D25B4659
:1048100021463846179A13E142E00A220092C4F377
:1048200002524FF0000A022A08D059F804CB032A9A
:104830004FEAEC710AD00DE029E02AE009F1070106
:1048400021F00702F2E802C1914609E00FFA8CFC60
:104850004FEAEC71042A03D14FFA8CFC4FEAEC7159
:10486000002907DA0A460021DCF1000C61EB0201A5
:104870002D2202E0220504D52B228DF804200122EE
:1048800003E0E20701D02022F7E7904659E00A2131
:1048900002E010220DE010214FF0000A00910BE021
:1048A00010224FF0000A44F004040827009203E0AD
:1048B00008224FF0000A0092C4F30252022A05D0E7
:1048C00059F804CB0021032A08D009E009F10701B7
:1048D00021F00702F2E802C1914605E01FFA8CFCC4
:1048E000042A01D10CF0FF0C4FF00008220728D554
:1048F000702806D0009B83F0100353EA0A0305D00A
:104900000EE040228DF80420012208E05CEA01025A
:1049100006D030228DF804208DF805000222904642
:10492000009B83F0080353EA0A030AD15CEA010200
:1049300001D1620705D530228DF804204FF001081F
:104940007F1E582804D034A003900EA802900DE0DA
:1049500036A0F9E753466046009AFBF759FC8446B7
:104960000398825C0298401E029002705CEA01008B
:10497000F0D1029806A9081A00F1200A600702D5B2
:1049800024F4803400E00127574502DDA7EB0A003C
:1049900000E0002000EB0A01009005984144401A15
:1049A0000590E00306D45B462146179A059800F06F
:1049B000B3F90544002706E001A85A46C05D1799DF
:1049C00090476D1C7F1C4745F6DBE0030CD55B462A
:1049D0002146179A059800F09FF9054404E030201D
:1049E0005A46179990476D1C0099481E009000295F
:1049F000F5DC08E0029802995A460078491C0291B9
:104A0000179990476D1CBAF10001AAF1010AF1DC77
:104A100065E1000009280100303132333435363782
:104A200038396162636465660000000030313233FA
:104A3000343536373839414243444546000000009A
:104A400000F058F90544761C307800287FF4ECAD6E
:104A500019B02846BDE8F08F620700D4062709F197
:104A6000070222F0070CFCE80223E14603F00048AD
:104A70005FEA080C02D00FF2702C0DE05FEA045CD4
:104A800002D50FF2682C07E05FEAC47C02D00FF277
:104A9000602C01E0AFF2700C4FF0FF3823F00043C0
:104AA000CDF850C065280CD006DC452809D0462832
:104AB0001DD047283DD13DE0662818D067287ED11B
:104AC00038E00021112F01DB112000E0781CCDE936
:104AD000000106A90EA8FFF7DDFCDDE90F010E9A23
:104AE00003910021009207F1010A04914DE04FF07B
:104AF00000400097CDE9011006A90EA8FFF7CAFCF7
:104B0000DDE90F0203920E9B11990022DDF80CA043
:104B10000093049211B9791C00EB010AB7EB0A006B
:104B200004D4C0F1FF3007F1010A0490AAEB07009A
:104B3000019044E0012F00DA01270021112F01DD4F
:104B4000112000E03846CDE9000106A90EA8FFF7C4
:104B5000A1FCDDE90F010E9A03910021049100925E
:104B6000BA4621070CD40399514500DA8A46BAF1B6
:104B7000010F05DD009AAAF10101515C302908D02E
:104B8000B84202DA10F1040F06DA0121CDE9011072
:104B900015E0AAF10101E9E7002805DC04990144C8
:104BA0000491AAEB000102E0411C514500DD8A4658
:104BB0000499401A401C01904FF0004002902007D9
:104BC00004D40198504501DBCDF8048000208DF815
:104BD0004F0002980DF14F07B0F1004F25D02B2068
:104BE0000E9002984FF0020800280CDA4042029022
:104BF0002D200E9007E00A210298FBF799FD303135
:104C0000029007F8011DB8F10001A8F10108F2DCDB
:104C100002980028EFD1791E0E980870307800F0C5
:104C2000200040F0450007F8020D12A8C01B00F15B
:104C300007081498007800B1012000EB0A010198E0
:104C400001EBE07105984144401A401E0590E003D5
:104C500006D45B462146179A059800F05DF8054496
:104C60001498007818B15A46179990476D1CE003C4
:104C700024D55B462146179A059800F04DF8054467
:104C80001CE00498002807DBDDE90301884203DD0E
:104C90000098405C179901E0179930205A469047D8
:104CA000049805F10105401C04900198401E0190F4
:104CB00004D12E205A46179990476D1CBAF1000175
:104CC000AAF1010ADDDC05E017F8010B5A46179935
:104CD00090476D1CB8F10001A8F10108F4DC5B46B7
:104CE0002146179A0598ABE62D0000002B00000026
:104CF000200000002DE9F041044600251E4617461D
:104D0000880404D405E039462020B0476D1C641E99
:104D1000F9D52846BDE8F0812DE9F041044600258B
:104D20001E469046C80301D5302700E0202788049E
:104D300004D505E041463846B0476D1C641EF9D5E0
:104D40002846BDE8F081000010B5044601E0FFF7F9
:104D5000F3F814F8010B04490028F8D1BDE810401D
:104D60000A20FFF7E9B80000000000200000000062
:104D7000000000000102030406070809000000000B
:104D800001020304010002000400060008000A00FA
:104D90000C00100020004000800000010000000016
:104DA00004000000020000000800000001010103EF
:104DB00007010000080402040801010174656D7018
:104DC000657261747572653A25302E32662A432009
:104DD000202070726573737572653A25302E3266C5
:104DE00068506120202068756D69646974793A257E
:104DF000302E326625250D0A0054656D706572618E
:104E00007475726520202020202020202020205032
:104E10007265737375726520202020202020202069
:104E20002020202048756D69646974790D000000A8
:104E3000504E0008000000201000000074440008DC
:104E4000604E000810000020400500008444000867
:104E50000000000010000000010000000024F40029
:04000005080001D915
:00000001FF
